{
  "_format": "hh-sol-artifact-1",
  "contractName": "Game",
  "sourceName": "contracts/Game.sol",
  "abi": [
    {
      "anonymous": false,
      "inputs": [
        {
          "indexed": false,
          "internalType": "enum Game.TileType[100]",
          "name": "board",
          "type": "uint8[100]"
        }
      ],
      "name": "boardState",
      "type": "event"
    },
    {
      "anonymous": false,
      "inputs": [
        {
          "indexed": false,
          "internalType": "string",
          "name": "boardString",
          "type": "string"
        }
      ],
      "name": "logBoard",
      "type": "event"
    },
    {
      "inputs": [
        {
          "internalType": "uint256",
          "name": "",
          "type": "uint256"
        }
      ],
      "name": "board",
      "outputs": [
        {
          "internalType": "enum Game.TileType",
          "name": "",
          "type": "uint8"
        }
      ],
      "stateMutability": "view",
      "type": "function"
    },
    {
      "inputs": [
        {
          "internalType": "uint256",
          "name": "x",
          "type": "uint256"
        },
        {
          "internalType": "uint256",
          "name": "y",
          "type": "uint256"
        }
      ],
      "name": "coord2Idx",
      "outputs": [
        {
          "internalType": "uint256",
          "name": "",
          "type": "uint256"
        }
      ],
      "stateMutability": "pure",
      "type": "function"
    },
    {
      "inputs": [
        {
          "internalType": "uint256",
          "name": "x",
          "type": "uint256"
        },
        {
          "internalType": "uint256",
          "name": "y",
          "type": "uint256"
        }
      ],
      "name": "coord2Piece",
      "outputs": [
        {
          "internalType": "enum Game.TileType",
          "name": "",
          "type": "uint8"
        }
      ],
      "stateMutability": "view",
      "type": "function"
    },
    {
      "inputs": [],
      "name": "createBoard",
      "outputs": [
        {
          "internalType": "enum Game.TileType[100]",
          "name": "",
          "type": "uint8[100]"
        }
      ],
      "stateMutability": "nonpayable",
      "type": "function"
    },
    {
      "inputs": [
        {
          "internalType": "enum Game.TileType",
          "name": "piece",
          "type": "uint8"
        }
      ],
      "name": "piece2Str",
      "outputs": [
        {
          "internalType": "string",
          "name": "",
          "type": "string"
        }
      ],
      "stateMutability": "pure",
      "type": "function"
    },
    {
      "inputs": [],
      "name": "printBoard",
      "outputs": [
        {
          "internalType": "string",
          "name": "",
          "type": "string"
        }
      ],
      "stateMutability": "nonpayable",
      "type": "function"
    }
  ],
  "bytecode": "0x608060405234801561001057600080fd5b50610ce5806100206000396000f3fe608060405234801561001057600080fd5b50600436106100625760003560e01c806325964e0c1461006757806328ed6e3f146100ad5780633650d878146100fa5780635c7f00c31461014657806388642ca2146101f05780639454986514610247575b600080fd5b61006f6102ca565b6040518082606460200280838360005b8381101561009a57808201518184015260208101905061007f565b5050505090500191505060405180910390f35b6100d9600480360360208110156100c357600080fd5b810190808035906020019092919050505061067e565b604051808260028111156100e957fe5b815260200191505060405180910390f35b6101306004803603604081101561011057600080fd5b8101908080359060200190929190803590602001909291905050506106a5565b6040518082815260200191505060405180910390f35b6101756004803603602081101561015c57600080fd5b81019080803560ff1690602001909291905050506106b5565b6040518080602001828103825283818151815260200191508051906020019080838360005b838110156101b557808201518184015260208101905061019a565b50505050905090810190601f1680156101e25780820380516001836020036101000a031916815260200191505b509250505060405180910390f35b6102266004803603604081101561020657600080fd5b8101908080359060200190929190803590602001909291905050506107ac565b6040518082600281111561023657fe5b815260200191505060405180910390f35b61024f6107e1565b6040518080602001828103825283818151815260200191508051906020019080838360005b8381101561028f578082015181840152602081019050610274565b50505050905090810190601f1680156102bc5780820380516001836020036101000a031916815260200191505b509250505060405180910390f35b6102d2610c8c565b60005b60288161ffff161015610369576000808261ffff16606481106102f457fe5b602091828204019190066101000a81548160ff0219169083600281111561031757fe5b02179055506000806001836064030361ffff166064811061033457fe5b602091828204019190066101000a81548160ff0219169083600281111561035757fe5b021790555080806001019150506102d5565b506000602890505b603c8161ffff1610156103c657600160008261ffff166064811061039157fe5b602091828204019190066101000a81548160ff021916908360028111156103b457fe5b02179055508080600101915050610371565b5060026000602a606481106103d757fe5b602091828204019190066101000a81548160ff021916908360028111156103fa57fe5b021790555060026000602b6064811061040f57fe5b602091828204019190066101000a81548160ff0219169083600281111561043257fe5b02179055506002600060346064811061044757fe5b602091828204019190066101000a81548160ff0219169083600281111561046a57fe5b02179055506002600060356064811061047f57fe5b602091828204019190066101000a81548160ff021916908360028111156104a257fe5b021790555060026000602a606481106104b757fe5b602091828204019190066101000a81548160ff021916908360028111156104da57fe5b021790555060026000602b606481106104ef57fe5b602091828204019190066101000a81548160ff0219169083600281111561051257fe5b02179055506002600060346064811061052757fe5b602091828204019190066101000a81548160ff0219169083600281111561054a57fe5b02179055506002600060356064811061055f57fe5b602091828204019190066101000a81548160ff0219169083600281111561058257fe5b02179055507fd1d008412961235d619ca73afedbc7f1e9b60477c6d08c8e99fc1905adf0643a6000604051808260648015610600576020028201916000905b82829054906101000a900460ff1660028111156105da57fe5b815260200190600101906020826000010492830192600103820291508084116105c15790505b505091505060405180910390a16000606480602002604051908101604052809291908260648015610674576020028201916000905b82829054906101000a900460ff16600281111561064e57fe5b815260200190600101906020826000010492830192600103820291508084116106355790505b5050505050905090565b6000816064811061068b57fe5b60209182820401919006915054906101000a900460ff1681565b60008183600a0201905092915050565b6060600160028111156106c457fe5b8260028111156106d057fe5b1415610713576040518060400160405280600181526020017f450000000000000000000000000000000000000000000000000000000000000081525090506107a7565b60028081111561071f57fe5b82600281111561072b57fe5b141561076e576040518060400160405280600181526020017f420000000000000000000000000000000000000000000000000000000000000081525090506107a7565b6040518060400160405280600181526020017f500000000000000000000000000000000000000000000000000000000000000081525090505b919050565b6000806107b984846106a5565b606481106107c357fe5b602091828204019190069054906101000a900460ff16905092915050565b606080606467ffffffffffffffff811180156107fc57600080fd5b506040519080825280601f01601f19166020018201604052801561082f5781602001600182028036833780820191505090505b509050606081905060005b60648161ffff161015610af05760028081111561085357fe5b60008261ffff166064811061086457fe5b602091828204019190069054906101000a900460ff16600281111561088557fe5b14156108f0577f4200000000000000000000000000000000000000000000000000000000000000828261ffff16815181106108bc57fe5b60200101907effffffffffffffffffffffffffffffffffffffffffffffffffffffffffffff1916908160001a905350610ae3565b600060028111156108fd57fe5b60008261ffff166064811061090e57fe5b602091828204019190069054906101000a900460ff16600281111561092f57fe5b141561099a577f5000000000000000000000000000000000000000000000000000000000000000828261ffff168151811061096657fe5b60200101907effffffffffffffffffffffffffffffffffffffffffffffffffffffffffffff1916908160001a905350610ae3565b7f4500000000000000000000000000000000000000000000000000000000000000828261ffff16815181106109cb57fe5b60200101907effffffffffffffffffffffffffffffffffffffffffffffffffffffffffffff1916908160001a905350819250610a3c6040518060400160405280601181526020017f626f61726453746174652069733a20257300000000000000000000000000000081525084610af7565b7f22f6c30659783b7c3c52e4d234192491476c8f04832fca4ce89bc39d6d96a190836040518080602001828103825283818151815260200191508051906020019080838360005b83811015610a9e578082015181840152602081019050610a83565b50505050905090810190601f168015610acb5780820380516001836020036101000a031916815260200191505b509250505060405180910390a1829350505050610af4565b808060010191505061083a565b5050505b90565b610c5f8282604051602401808060200180602001838103835285818151815260200191508051906020019080838360005b83811015610b43578082015181840152602081019050610b28565b50505050905090810190601f168015610b705780820380516001836020036101000a031916815260200191505b50838103825284818151815260200191508051906020019080838360005b83811015610ba9578082015181840152602081019050610b8e565b50505050905090810190601f168015610bd65780820380516001836020036101000a031916815260200191505b509450505050506040516020818303038152906040527f4b5c4277000000000000000000000000000000000000000000000000000000007bffffffffffffffffffffffffffffffffffffffffffffffffffffffff19166020820180517bffffffffffffffffffffffffffffffffffffffffffffffffffffffff8381831617835250505050610c63565b5050565b60008151905060006a636f6e736f6c652e6c6f679050602083016000808483855afa5050505050565b60405180610c80016040528060649060208202803683378082019150509050509056fea26469706673582212204376eb5c141a6a7dcbfa949e53f6506d62c280eab985b315baa569a54990f72164736f6c63430007030033",
  "linkReferences": {},
  "deployedLinkReferences": {}
}