{
  "_format": "hh-sol-artifact-1",
  "contractName": "Stratego",
  "sourceName": "contracts/Stratego.sol",
  "abi": [
    {
      "anonymous": false,
      "inputs": [
        {
          "indexed": false,
          "internalType": "address",
          "name": "from",
          "type": "address"
        },
        {
          "indexed": false,
          "internalType": "uint256",
          "name": "gameID",
          "type": "uint256"
        }
      ],
      "name": "GameIDs",
      "type": "event"
    },
    {
      "anonymous": false,
      "inputs": [
        {
          "indexed": false,
          "internalType": "uint256",
          "name": "gameID",
          "type": "uint256"
        },
        {
          "indexed": false,
          "internalType": "bool",
          "name": "winner",
          "type": "bool"
        }
      ],
      "name": "GameoverLog",
      "type": "event"
    },
    {
      "anonymous": false,
      "inputs": [
        {
          "indexed": false,
          "internalType": "uint256",
          "name": "gameID",
          "type": "uint256"
        },
        {
          "indexed": false,
          "internalType": "address",
          "name": "winner",
          "type": "address"
        }
      ],
      "name": "battleResolved",
      "type": "event"
    },
    {
      "anonymous": false,
      "inputs": [
        {
          "indexed": false,
          "internalType": "uint256",
          "name": "gameID",
          "type": "uint256"
        },
        {
          "indexed": false,
          "internalType": "uint256",
          "name": "attackerLoc",
          "type": "uint256"
        },
        {
          "indexed": false,
          "internalType": "uint256",
          "name": "attackedLoc",
          "type": "uint256"
        }
      ],
      "name": "battleSquares",
      "type": "event"
    },
    {
      "anonymous": false,
      "inputs": [
        {
          "indexed": false,
          "internalType": "uint256",
          "name": "gameID",
          "type": "uint256"
        },
        {
          "indexed": false,
          "internalType": "enum Stratego.Phase",
          "name": "curr",
          "type": "uint8"
        }
      ],
      "name": "currPhase",
      "type": "event"
    },
    {
      "anonymous": false,
      "inputs": [
        {
          "indexed": false,
          "internalType": "address",
          "name": "red",
          "type": "address"
        },
        {
          "indexed": false,
          "internalType": "address",
          "name": "blue",
          "type": "address"
        },
        {
          "indexed": false,
          "internalType": "string",
          "name": "boardString",
          "type": "string"
        }
      ],
      "name": "gameState",
      "type": "event"
    },
    {
      "anonymous": false,
      "inputs": [
        {
          "indexed": false,
          "internalType": "string",
          "name": "boardString",
          "type": "string"
        }
      ],
      "name": "logBoard",
      "type": "event"
    },
    {
      "anonymous": false,
      "inputs": [
        {
          "indexed": false,
          "internalType": "uint256",
          "name": "gameID",
          "type": "uint256"
        },
        {
          "indexed": false,
          "internalType": "address",
          "name": "sender",
          "type": "address"
        },
        {
          "indexed": false,
          "internalType": "uint8",
          "name": "pieceVal",
          "type": "uint8"
        }
      ],
      "name": "pieceClaimed",
      "type": "event"
    },
    {
      "anonymous": false,
      "inputs": [
        {
          "indexed": false,
          "internalType": "uint256",
          "name": "gameID",
          "type": "uint256"
        },
        {
          "indexed": false,
          "internalType": "address",
          "name": "sender",
          "type": "address"
        },
        {
          "indexed": false,
          "internalType": "uint64",
          "name": "board",
          "type": "uint64"
        }
      ],
      "name": "piecesPlaced",
      "type": "event"
    },
    {
      "inputs": [
        {
          "internalType": "uint256",
          "name": "Idx",
          "type": "uint256"
        }
      ],
      "name": "Idx2Coord",
      "outputs": [
        {
          "internalType": "uint256",
          "name": "",
          "type": "uint256"
        },
        {
          "internalType": "uint256",
          "name": "",
          "type": "uint256"
        }
      ],
      "stateMutability": "pure",
      "type": "function"
    },
    {
      "inputs": [
        {
          "internalType": "uint256",
          "name": "gameID",
          "type": "uint256"
        },
        {
          "internalType": "uint8",
          "name": "pieceVal",
          "type": "uint8"
        }
      ],
      "name": "battle",
      "outputs": [],
      "stateMutability": "nonpayable",
      "type": "function"
    },
    {
      "inputs": [
        {
          "internalType": "uint256",
          "name": "x",
          "type": "uint256"
        },
        {
          "internalType": "uint256",
          "name": "y",
          "type": "uint256"
        }
      ],
      "name": "coord2Idx",
      "outputs": [
        {
          "internalType": "uint8",
          "name": "",
          "type": "uint8"
        }
      ],
      "stateMutability": "pure",
      "type": "function"
    },
    {
      "inputs": [
        {
          "internalType": "uint256",
          "name": "gameID",
          "type": "uint256"
        },
        {
          "internalType": "uint256",
          "name": "x",
          "type": "uint256"
        },
        {
          "internalType": "uint256",
          "name": "y",
          "type": "uint256"
        }
      ],
      "name": "coord2Piece",
      "outputs": [
        {
          "internalType": "enum Stratego.Tile",
          "name": "",
          "type": "uint8"
        }
      ],
      "stateMutability": "view",
      "type": "function"
    },
    {
      "inputs": [
        {
          "internalType": "uint256",
          "name": "gameID",
          "type": "uint256"
        }
      ],
      "name": "createBoard",
      "outputs": [
        {
          "internalType": "enum Stratego.Tile[100]",
          "name": "",
          "type": "uint8[100]"
        }
      ],
      "stateMutability": "nonpayable",
      "type": "function"
    },
    {
      "inputs": [],
      "name": "createGame",
      "outputs": [],
      "stateMutability": "nonpayable",
      "type": "function"
    },
    {
      "inputs": [
        {
          "internalType": "uint256",
          "name": "gameID",
          "type": "uint256"
        }
      ],
      "name": "join",
      "outputs": [],
      "stateMutability": "nonpayable",
      "type": "function"
    },
    {
      "inputs": [
        {
          "internalType": "uint256",
          "name": "gameID",
          "type": "uint256"
        },
        {
          "internalType": "uint256",
          "name": "oldX",
          "type": "uint256"
        },
        {
          "internalType": "uint256",
          "name": "oldY",
          "type": "uint256"
        },
        {
          "internalType": "uint256",
          "name": "newX",
          "type": "uint256"
        },
        {
          "internalType": "uint256",
          "name": "newY",
          "type": "uint256"
        }
      ],
      "name": "movePiece",
      "outputs": [],
      "stateMutability": "nonpayable",
      "type": "function"
    },
    {
      "inputs": [
        {
          "internalType": "enum Stratego.Tile",
          "name": "piece",
          "type": "uint8"
        }
      ],
      "name": "piece2Str",
      "outputs": [
        {
          "internalType": "string",
          "name": "",
          "type": "string"
        }
      ],
      "stateMutability": "pure",
      "type": "function"
    },
    {
      "inputs": [
        {
          "internalType": "uint256",
          "name": "gameID",
          "type": "uint256"
        },
        {
          "internalType": "uint64",
          "name": "board",
          "type": "uint64"
        }
      ],
      "name": "place",
      "outputs": [],
      "stateMutability": "nonpayable",
      "type": "function"
    },
    {
      "inputs": [
        {
          "internalType": "uint256",
          "name": "gameID",
          "type": "uint256"
        }
      ],
      "name": "printBoard",
      "outputs": [
        {
          "internalType": "string",
          "name": "",
          "type": "string"
        }
      ],
      "stateMutability": "view",
      "type": "function"
    },
    {
      "inputs": [
        {
          "internalType": "uint256",
          "name": "gameID",
          "type": "uint256"
        }
      ],
      "name": "printPhase",
      "outputs": [
        {
          "internalType": "string",
          "name": "",
          "type": "string"
        }
      ],
      "stateMutability": "view",
      "type": "function"
    }
  ],
  "bytecode": "0x608060405260008060006101000a81548167ffffffffffffffff021916908367ffffffffffffffff16021790555060008060086101000a81548167ffffffffffffffff021916908367ffffffffffffffff1602179055506001600060106101000a81548167ffffffffffffffff021916908367ffffffffffffffff16021790555034801561008c57600080fd5b5061315d8061009c6000396000f3fe608060405234801561001057600080fd5b50600436106100b45760003560e01c80635fa40e88116100715780635fa40e881461033a5780637255d7291461039b5780637a45a65a146103a557806388f56f09146103fb578063eaae7fe214610436578063ec12e3cd14610478576100b4565b8063049878f3146100b957806305cea42d146100e7578063110410f71461013057806314515fdb1461019a5780633650d878146102415780635c7f00c314610290575b600080fd5b6100e5600480360360208110156100cf57600080fd5b810190808035906020019092919050505061051f565b005b610113600480360360208110156100fd57600080fd5b81019080803590602001909291905050506108b5565b604051808381526020018281526020019250505060405180910390f35b61015c6004803603602081101561014657600080fd5b81019080803590602001909291905050506108d7565b6040518082606460200280838360005b8381101561018757808201518184015260208101905061016c565b5050505090500191505060405180910390f35b6101c6600480360360208110156101b057600080fd5b8101908080359060200190929190505050610ce1565b6040518080602001828103825283818151815260200191508051906020019080838360005b838110156102065780820151818401526020810190506101eb565b50505050905090810190601f1680156102335780820380516001836020036101000a031916815260200191505b509250505060405180910390f35b6102776004803603604081101561025757600080fd5b810190808035906020019092919080359060200190929190505050610ef1565b604051808260ff16815260200191505060405180910390f35b6102bf600480360360208110156102a657600080fd5b81019080803560ff169060200190929190505050610f01565b6040518080602001828103825283818151815260200191508051906020019080838360005b838110156102ff5780820151818401526020810190506102e4565b50505050905090810190601f16801561032c5780820380516001836020036101000a031916815260200191505b509250505060405180910390f35b61037a6004803603606081101561035057600080fd5b81019080803590602001909291908035906020019092919080359060200190929190505050611054565b6040518082600381111561038a57fe5b815260200191505060405180910390f35b6103a36110a7565b005b6103f9600480360360a08110156103bb57600080fd5b810190808035906020019092919080359060200190929190803590602001909291908035906020019092919080359060200190929190505050611349565b005b6104346004803603604081101561041157600080fd5b8101908080359060200190929190803560ff1690602001909291905050506116e1565b005b6104766004803603604081101561044c57600080fd5b8101908080359060200190929190803567ffffffffffffffff169060200190929190505050611d02565b005b6104a46004803603602081101561048e57600080fd5b8101908080359060200190929190505050612232565b6040518080602001828103825283818151815260200191508051906020019080838360005b838110156104e45780820151818401526020810190506104c9565b50505050905090810190601f1680156105115780820380516001836020036101000a031916815260200191505b509250505060405180910390f35b600060016000838152602001908152602001600020905080600a0160009054906101000a900460ff16801561057b57506000600481111561055c57fe5b8160010160149054906101000a900460ff16600481111561057957fe5b145b6105ed576040517f08c379a00000000000000000000000000000000000000000000000000000000081526004018080602001828103825260198152602001807f67616d65206e6f7420696e2077616974696e672073746174650000000000000081525060200191505060405180910390fd5b3373ffffffffffffffffffffffffffffffffffffffff168160000160009054906101000a900473ffffffffffffffffffffffffffffffffffffffff1673ffffffffffffffffffffffffffffffffffffffff1614156106b3576040517f08c379a00000000000000000000000000000000000000000000000000000000081526004018080602001828103825260168152602001807f706c6179657220616c726561647920696e2067616d650000000000000000000081525060200191505060405180910390fd5b338160010160006101000a81548173ffffffffffffffffffffffffffffffffffffffff021916908373ffffffffffffffffffffffffffffffffffffffff16021790555060018160010160146101000a81548160ff0219169083600481111561071757fe5b0217905550600081600801819055506000600881819054906101000a900467ffffffffffffffff168092919060010191906101000a81548167ffffffffffffffff021916908367ffffffffffffffff16021790555050610776826108d7565b81600201906064610788929190613023565b507f058d4ecc005f117e03f5d28a9d76f3b9fb5ece8c0d1b34fbc84342101ae913c38160000160009054906101000a900473ffffffffffffffffffffffffffffffffffffffff168260010160009054906101000a900473ffffffffffffffffffffffffffffffffffffffff166107fd85612232565b604051808473ffffffffffffffffffffffffffffffffffffffff1681526020018373ffffffffffffffffffffffffffffffffffffffff16815260200180602001828103825283818151815260200191508051906020019080838360005b8381101561087557808201518184015260208101905061085a565b50505050905090810190601f1680156108a25780820380516001836020036101000a031916815260200191505b5094505050505060405180910390a15050565b600080826064816108c257fe5b04836064816108cd57fe5b0691509150915091565b6108df6130c5565b600060016000848152602001908152602001600020905060005b60288161ffff161015610993576000826002018261ffff166064811061091b57fe5b602091828204019190066101000a81548160ff0219169083600381111561093e57fe5b02179055506001826002016001836064030361ffff166064811061095e57fe5b602091828204019190066101000a81548160ff0219169083600381111561098157fe5b021790555080806001019150506108f9565b506000602890505b603c8161ffff1610156109f2576002826002018261ffff16606481106109bd57fe5b602091828204019190066101000a81548160ff021916908360038111156109e057fe5b0217905550808060010191505061099b565b50600381600201602a60648110610a0557fe5b602091828204019190066101000a81548160ff02191690836003811115610a2857fe5b0217905550600381600201602b60648110610a3f57fe5b602091828204019190066101000a81548160ff02191690836003811115610a6257fe5b0217905550600381600201603460648110610a7957fe5b602091828204019190066101000a81548160ff02191690836003811115610a9c57fe5b0217905550600381600201603560648110610ab357fe5b602091828204019190066101000a81548160ff02191690836003811115610ad657fe5b0217905550600381600201602e60648110610aed57fe5b602091828204019190066101000a81548160ff02191690836003811115610b1057fe5b0217905550600381600201602f60648110610b2757fe5b602091828204019190066101000a81548160ff02191690836003811115610b4a57fe5b0217905550600381600201603860648110610b6157fe5b602091828204019190066101000a81548160ff02191690836003811115610b8457fe5b0217905550600381600201603960648110610b9b57fe5b602091828204019190066101000a81548160ff02191690836003811115610bbe57fe5b02179055507f22f6c30659783b7c3c52e4d234192491476c8f04832fca4ce89bc39d6d96a190610bf18260090154612232565b6040518080602001828103825283818151815260200191508051906020019080838360005b83811015610c31578082015181840152602081019050610c16565b50505050905090810190601f168015610c5e5780820380516001836020036101000a031916815260200191505b509250505060405180910390a180600201606480602002604051908101604052809291908260648015610cd4576020028201916000905b82829054906101000a900460ff166003811115610cae57fe5b81526020019060010190602082600001049283019260010382029150808411610c955790505b5050505050915050919050565b6060600060016000848152602001908152602001600020905060006004811115610d0757fe5b8160010160149054906101000a900460ff166004811115610d2457fe5b1415610d68576040518060400160405280600881526020017f4177616974696e67000000000000000000000000000000000000000000000000815250915050610eec565b60016004811115610d7557fe5b8160010160149054906101000a900460ff166004811115610d9257fe5b1415610dd6576040518060400160405280600981526020017f506c6163656d656e740000000000000000000000000000000000000000000000815250915050610eec565b60026004811115610de357fe5b8160010160149054906101000a900460ff166004811115610e0057fe5b1415610e44576040518060400160405280600881526020017f47616d65706c6179000000000000000000000000000000000000000000000000815250915050610eec565b60036004811115610e5157fe5b8160010160149054906101000a900460ff166004811115610e6e57fe5b1415610eb2576040518060400160405280600681526020017f426174746c650000000000000000000000000000000000000000000000000000815250915050610eec565b6040518060400160405280600881526020017f47616d656f7665720000000000000000000000000000000000000000000000008152509150505b919050565b60008183600a0201905092915050565b606060026003811115610f1057fe5b826003811115610f1c57fe5b1415610f5f576040518060400160405280600181526020017f4500000000000000000000000000000000000000000000000000000000000000815250905061104f565b600380811115610f6b57fe5b826003811115610f7757fe5b1415610fba576040518060400160405280600181526020017f5800000000000000000000000000000000000000000000000000000000000000815250905061104f565b60006003811115610fc757fe5b826003811115610fd357fe5b1415611016576040518060400160405280600181526020017f5200000000000000000000000000000000000000000000000000000000000000815250905061104f565b6040518060400160405280600181526020017f420000000000000000000000000000000000000000000000000000000000000081525090505b919050565b6000806001600086815260200190815260200160002090508060020161107a8585610ef1565b60ff166064811061108757fe5b602091828204019190069054906101000a900460ff169150509392505050565b6000620f422f67ffffffffffffffff166045600060109054906101000a900467ffffffffffffffff160267ffffffffffffffff16816110e257fe5b0690505b600160008267ffffffffffffffff168152602001908152602001600020600a0160009054906101000a900460ff161561114457620f422f67ffffffffffffffff166001820167ffffffffffffffff168161113c57fe5b0690506110e6565b80600060106101000a81548167ffffffffffffffff021916908367ffffffffffffffff1602179055506000600160008367ffffffffffffffff1681526020019081526020016000209050338160000160006101000a81548173ffffffffffffffffffffffffffffffffffffffff021916908373ffffffffffffffffffffffffffffffffffffffff16021790555060008160060160006101000a81548160ff021916908315150217905550600181600a0160006101000a81548160ff021916908315150217905550600081600701819055508167ffffffffffffffff16816009018190555060658160060160036101000a81548160ff021916908360ff16021790555060658160060160046101000a81548160ff021916908360ff16021790555060008160060160016101000a81548160ff021916908360ff16021790555060008160060160026101000a81548160ff021916908360ff16021790555060008081819054906101000a900467ffffffffffffffff168092919060010191906101000a81548167ffffffffffffffff021916908367ffffffffffffffff160217905550507f0b00eaed7a0d55952ef3dd90aadf03196cf0a192aec8f034c574b5bf7ab4f0ea3383604051808373ffffffffffffffffffffffffffffffffffffffff1681526020018267ffffffffffffffff1681526020019250505060405180910390a15050565b600060016000878152602001908152602001600020905080600a0160009054906101000a900460ff166113e4576040517f08c379a00000000000000000000000000000000000000000000000000000000081526004018080602001828103825260128152602001807f67616d6520646f65736e2774206578697374000000000000000000000000000081525060200191505060405180910390fd5b600a851080156113f45750600a84105b80156114005750600a83105b801561140c5750600a82105b61147e576040517f08c379a00000000000000000000000000000000000000000000000000000000081526004018080602001828103825260138152602001807f636f6f726473206e6f7420696e2072616e67650000000000000000000000000081525060200191505060405180910390fd5b6002600481111561148b57fe5b8160010160149054906101000a900460ff1660048111156114a857fe5b146114fe576040517f08c379a00000000000000000000000000000000000000000000000000000000081526004018080602001828103825260228152602001806131066022913960400191505060405180910390fd5b8060010160009054906101000a900473ffffffffffffffffffffffffffffffffffffffff1673ffffffffffffffffffffffffffffffffffffffff163373ffffffffffffffffffffffffffffffffffffffff1614806115ab57508060000160009054906101000a900473ffffffffffffffffffffffffffffffffffffffff1673ffffffffffffffffffffffffffffffffffffffff163373ffffffffffffffffffffffffffffffffffffffff16145b61161d576040517f08c379a000000000000000000000000000000000000000000000000000000000815260040180806020018281038252600b8152602001807f6e6f7420706c6179696e6700000000000000000000000000000000000000000081525060200191505060405180910390fd5b60006116298686610ef1565b905060006116378585610ef1565b90506000611646898989611054565b905060006116558a8888611054565b90508460000160009054906101000a900473ffffffffffffffffffffffffffffffffffffffff1673ffffffffffffffffffffffffffffffffffffffff163373ffffffffffffffffffffffffffffffffffffffff1614156116c4576116bf8583838787600080612515565b6116d5565b6116d48583838787600180612515565b5b50505050505050505050565b600060016000848152602001908152602001600020905080600a0160009054906101000a900460ff1661177c576040517f08c379a00000000000000000000000000000000000000000000000000000000081526004018080602001828103825260128152602001807f67616d6520646f65736e2774206578697374000000000000000000000000000081525060200191505060405180910390fd5b6003600481111561178957fe5b8160010160149054906101000a900460ff1660048111156117a657fe5b14611819576040517f08c379a000000000000000000000000000000000000000000000000000000000815260040180806020018281038252600c8152602001807f6e6f7420626174746c696e67000000000000000000000000000000000000000081525060200191505060405180910390fd5b600c8260ff1610611892576040517f08c379a00000000000000000000000000000000000000000000000000000000081526004018080602001828103825260138152602001807f696e76616c69642070696563652076616c75650000000000000000000000000081525060200191505060405180910390fd5b8060000160009054906101000a900473ffffffffffffffffffffffffffffffffffffffff1673ffffffffffffffffffffffffffffffffffffffff163373ffffffffffffffffffffffffffffffffffffffff16148061193f57508060010160009054906101000a900473ffffffffffffffffffffffffffffffffffffffff1673ffffffffffffffffffffffffffffffffffffffff163373ffffffffffffffffffffffffffffffffffffffff16145b6119b1576040517f08c379a000000000000000000000000000000000000000000000000000000000815260040180806020018281038252600b8152602001807f6e6f7420706c6179696e6700000000000000000000000000000000000000000081525060200191505060405180910390fd5b60008160000160009054906101000a900473ffffffffffffffffffffffffffffffffffffffff1673ffffffffffffffffffffffffffffffffffffffff163373ffffffffffffffffffffffffffffffffffffffff16141590508160060160009054906101000a900460ff1615158115151415611b4b5760008260060160019054906101000a900460ff1660ff1614611ab0576040517f08c379a00000000000000000000000000000000000000000000000000000000081526004018080602001828103825260168152602001807f616c72656164792072656365697665642070696563650000000000000000000081525060200191505060405180910390fd5b600a8360ff1610611b29576040517f08c379a00000000000000000000000000000000000000000000000000000000081526004018080602001828103825260168152602001807f63616e6e6f74206d6f766520746861742070696563650000000000000000000081525060200191505060405180910390fd5b828260060160016101000a81548160ff021916908360ff160217905550611bf3565b60008260060160029054906101000a900460ff1660ff1614611bd5576040517f08c379a00000000000000000000000000000000000000000000000000000000081526004018080602001828103825260168152602001807f616c72656164792072656365697665642070696563650000000000000000000081525060200191505060405180910390fd5b828260060160026101000a81548160ff021916908360ff1602179055505b7f83b698126cc9cf6a49dbdf9eb0aa4549909f0e592ad1ec516cbd6ea6e4fb485b843385604051808481526020018373ffffffffffffffffffffffffffffffffffffffff1681526020018260ff168152602001935050505060405180910390a160008260060160019054906101000a900460ff1660ff1614158015611c8d575060008260060160029054906101000a900460ff1660ff1614155b15611c9c57611c9b82612942565b5b7f83b698126cc9cf6a49dbdf9eb0aa4549909f0e592ad1ec516cbd6ea6e4fb485b843385604051808481526020018373ffffffffffffffffffffffffffffffffffffffff1681526020018260ff168152602001935050505060405180910390a150505050565b600060016000848152602001908152602001600020905080600a0160009054906101000a900460ff16611d9d576040517f08c379a00000000000000000000000000000000000000000000000000000000081526004018080602001828103825260128152602001807f67616d6520646f65736e2774206578697374000000000000000000000000000081525060200191505060405180910390fd5b60016004811115611daa57fe5b8160010160149054906101000a900460ff166004811115611dc757fe5b14611e3a576040517f08c379a00000000000000000000000000000000000000000000000000000000081526004018080602001828103825260138152602001807f67616d6520696e2077726f6e672070686173650000000000000000000000000081525060200191505060405180910390fd5b8060000160009054906101000a900473ffffffffffffffffffffffffffffffffffffffff1673ffffffffffffffffffffffffffffffffffffffff163373ffffffffffffffffffffffffffffffffffffffff161480611ee757508060010160009054906101000a900473ffffffffffffffffffffffffffffffffffffffff1673ffffffffffffffffffffffffffffffffffffffff163373ffffffffffffffffffffffffffffffffffffffff16145b611f59576040517f08c379a000000000000000000000000000000000000000000000000000000000815260040180806020018281038252600b8152602001807f6e6f7420706c6179696e6700000000000000000000000000000000000000000081525060200191505060405180910390fd5b8060000160009054906101000a900473ffffffffffffffffffffffffffffffffffffffff1673ffffffffffffffffffffffffffffffffffffffff163373ffffffffffffffffffffffffffffffffffffffff16141561203f57600081600701541461202b576040517f08c379a00000000000000000000000000000000000000000000000000000000081526004018080602001828103825260168152602001807f5265642070696563657320616c7265616479207365740000000000000000000081525060200191505060405180910390fd5b8167ffffffffffffffff1681600701819055505b8060010160009054906101000a900473ffffffffffffffffffffffffffffffffffffffff1673ffffffffffffffffffffffffffffffffffffffff163373ffffffffffffffffffffffffffffffffffffffff161415612125576000816008015414612111576040517f08c379a00000000000000000000000000000000000000000000000000000000081526004018080602001828103825260178152602001807f426c75652070696563657320616c72656164792073657400000000000000000081525060200191505060405180910390fd5b8167ffffffffffffffff1681600801819055505b7f6bb02b2def176c22e934d548659b4597e571a43213f9dd51a3f0341ec2a50cd9833384604051808481526020018373ffffffffffffffffffffffffffffffffffffffff1681526020018267ffffffffffffffff168152602001935050505060405180910390a160008160080154141580156121a657506000816007015414155b156121d25760028160010160146101000a81548160ff021916908360048111156121cc57fe5b02179055505b7f6441bcf05927d99b045714692cab014a3d4db32a827c40492a3147f69aeb5dad838260010160149054906101000a900460ff166040518083815260200182600481111561221c57fe5b81526020019250505060405180910390a1505050565b606060006001600084815260200190815260200160002090506060606461ffff1667ffffffffffffffff8111801561226957600080fd5b506040519080825280601f01601f19166020018201604052801561229c5781602001600182028036833780820191505090505b509050606081905060005b606461ffff16811015612509576003808111156122c057fe5b8460020182606481106122cf57fe5b602091828204019190069054906101000a900460ff1660038111156122f057fe5b1415612357577f580000000000000000000000000000000000000000000000000000000000000082828151811061232357fe5b60200101907effffffffffffffffffffffffffffffffffffffffffffffffffffffffffffff1916908160001a9053506124fc565b6000600381111561236457fe5b84600201826064811061237357fe5b602091828204019190069054906101000a900460ff16600381111561239457fe5b14156123fb577f52000000000000000000000000000000000000000000000000000000000000008282815181106123c757fe5b60200101907effffffffffffffffffffffffffffffffffffffffffffffffffffffffffffff1916908160001a9053506124fc565b6001600381111561240857fe5b84600201826064811061241757fe5b602091828204019190069054906101000a900460ff16600381111561243857fe5b141561249f577f420000000000000000000000000000000000000000000000000000000000000082828151811061246b57fe5b60200101907effffffffffffffffffffffffffffffffffffffffffffffffffffffffffffff1916908160001a9053506124fc565b7f45000000000000000000000000000000000000000000000000000000000000008282815181106124cc57fe5b60200101907effffffffffffffffffffffffffffffffffffffffffffffffffffffffffffff1916908160001a9053505b80806001019150506122a7565b50809350505050919050565b8660060160009054906101000a900460ff1615158115151461259f576040517f08c379a000000000000000000000000000000000000000000000000000000000815260040180806020018281038252600d8152602001807f6e6f7420796f7572207475726e0000000000000000000000000000000000000081525060200191505060405180910390fd5b8160038111156125ab57fe5b8660038111156125b757fe5b1461262a576040517f08c379a00000000000000000000000000000000000000000000000000000000081526004018080602001828103825260168152602001807f63616e6e6f74206d6f766520746861742070696563650000000000000000000081525060200191505060405180910390fd5b81600381111561263657fe5b85600381111561264257fe5b14158015612666575060038081111561265757fe5b85600381111561266357fe5b14155b6126d8576040517f08c379a00000000000000000000000000000000000000000000000000000000081526004018080602001828103825260118152602001807f63616e6e6f74206d6f766520746865726500000000000000000000000000000081525060200191505060405180910390fd5b6000612704600a8660ff16816126ea57fe5b0460ff16600a8660ff16816126fb57fe5b0460ff16612de1565b90506000612732600a8760ff168161271857fe5b0660ff16600a8760ff168161272957fe5b0660ff16612de1565b90506000821480156127445750600181145b8061275b575060018214801561275a5750600081145b5b6127cd576040517f08c379a00000000000000000000000000000000000000000000000000000000081526004018080602001828103825260138152602001807f63616e6e6f74206a756d7020737175617265730000000000000000000000000081525060200191505060405180910390fd5b600260038111156127da57fe5b8760038111156127e657fe5b1415612885576002896002018760ff166064811061280057fe5b602091828204019190066101000a81548160ff0219169083600381111561282357fe5b021790555083896002018660ff166064811061283b57fe5b602091828204019190066101000a81548160ff0219169083600381111561285e57fe5b021790555082158960060160006101000a81548160ff021916908315150217905550612937565b60038960010160146101000a81548160ff021916908360048111156128a657fe5b0217905550858960060160036101000a81548160ff021916908360ff160217905550848960060160046101000a81548160ff021916908360ff1602179055507f454bce2fbfedddc9068a4f38f0ad71415e1e9001293007cb9ffdaa3743af6fc489600901548787604051808481526020018360ff1681526020018260ff168152602001935050505060405180910390a15b505050505050505050565b6002816002018260060160039054906101000a900460ff1660ff166064811061296757fe5b602091828204019190066101000a81548160ff0219169083600381111561298a57fe5b0217905550600b8160060160029054906101000a900460ff1660ff161415612a2d5760048160010160146101000a81548160ff021916908360048111156129cd57fe5b02179055507f49a64b98cd43c48f1e0338cc32f2712938f1df5c0287875d17aff532e0e502c681600901548260060160009054906101000a900460ff166040518083815260200182151581526020019250505060405180910390a1612dde565b8060060160019054906101000a900460ff1660ff168160060160029054906101000a900460ff1660ff161415612bed57612a9b6040518060400160405280600581526020017f657175616c000000000000000000000000000000000000000000000000000000815250612dfe565b6002816002018260060160049054906101000a900460ff1660ff1660648110612ac057fe5b602091828204019190066101000a81548160ff02191690836003811115612ae357fe5b02179055507fa032477e7762cf074cc5b49af2cefdef708d5610f6e0517138b134f4d241b53981600901546000604051808381526020018273ffffffffffffffffffffffffffffffffffffffff1681526020019250505060405180910390a18060060160009054906101000a900460ff16158160060160006101000a81548160ff02191690831515021790555060008160060160016101000a81548160ff021916908360ff16021790555060008160060160026101000a81548160ff021916908360ff16021790555060658160060160036101000a81548160ff021916908360ff16021790555060658160060160046101000a81548160ff021916908360ff160217905550612dde565b6000612bf882612efc565b9050600081612c2b578260000160009054906101000a900473ffffffffffffffffffffffffffffffffffffffff16612c51565b8260010160009054906101000a900473ffffffffffffffffffffffffffffffffffffffff165b90508260060160009054906101000a900460ff1615158215151415612cdc578260060160009054906101000a900460ff16612c8d576000612c90565b60015b836002018460060160049054906101000a900460ff1660ff1660648110612cb357fe5b602091828204019190066101000a81548160ff02191690836003811115612cd657fe5b02179055505b8260060160009054906101000a900460ff16158360060160006101000a81548160ff02191690831515021790555060008360060160016101000a81548160ff021916908360ff16021790555060008360060160026101000a81548160ff021916908360ff16021790555060658360060160036101000a81548160ff021916908360ff16021790555060658360060160046101000a81548160ff021916908360ff1602179055507fa032477e7762cf074cc5b49af2cefdef708d5610f6e0517138b134f4d241b539836009015482604051808381526020018273ffffffffffffffffffffffffffffffffffffffff1681526020019250505060405180910390a150505b50565b6000818311612df257828203612df6565b8183035b905092915050565b612ef9816040516024018080602001828103825283818151815260200191508051906020019080838360005b83811015612e45578082015181840152602081019050612e2a565b50505050905090810190601f168015612e725780820380516001836020036101000a031916815260200191505b50925050506040516020818303038152906040527f41304fac000000000000000000000000000000000000000000000000000000007bffffffffffffffffffffffffffffffffffffffffffffffffffffffff19166020820180517bffffffffffffffffffffffffffffffffffffffffffffffffffffffff8381831617835250505050612ffa565b50565b6000808260060160009054906101000a900460ff1615905060008360060160009054906101000a900460ff169050600a8460060160029054906101000a900460ff1660ff16148015612f63575060088460060160019054906101000a900460ff1660ff1614155b15612f72578192505050612ff5565b60098460060160019054906101000a900460ff1660ff16148015612faa575060018460060160029054906101000a900460ff1660ff16145b15612fb9578092505050612ff5565b8360060160029054906101000a900460ff1660ff168460060160019054906101000a900460ff1660ff1610612fee5781612ff0565b805b925050505b919050565b60008151905060006a636f6e736f6c652e6c6f679050602083016000808483855afa5050505050565b826064601f016020900481019282156130b45791602002820160005b8382111561308557835183826101000a81548160ff0219169083600381111561306457fe5b0217905550926020019260010160208160000104928301926001030261303f565b80156130b25782816101000a81549060ff0219169055600101602081600001049283019260010302613085565b505b5090506130c191906130e8565b5090565b60405180610c800160405280606490602082028036833780820191505090505090565b5b808211156131015760008160009055506001016130e9565b509056fe63616e6e6f74206d6f766520647572696e6720746869732067616d65207068617365a264697066735822122006c355756064d2028720bfc9713f624d47f0824a8b66f9636b293066fba1f1a464736f6c63430007030033",
  "linkReferences": {},
  "deployedLinkReferences": {}
}