{
  "_format": "hh-sol-artifact-1",
  "contractName": "Stratego",
  "sourceName": "contracts/Stratego.sol",
  "abi": [
    {
      "anonymous": false,
      "inputs": [
        {
          "indexed": false,
          "internalType": "address",
          "name": "from",
          "type": "address"
        },
        {
          "indexed": false,
          "internalType": "uint256",
          "name": "gameID",
          "type": "uint256"
        }
      ],
      "name": "GameIDs",
      "type": "event"
    },
    {
      "anonymous": false,
      "inputs": [
        {
          "indexed": false,
          "internalType": "uint256",
          "name": "gameID",
          "type": "uint256"
        },
        {
          "indexed": false,
          "internalType": "bool",
          "name": "winner",
          "type": "bool"
        }
      ],
      "name": "GameoverLog",
      "type": "event"
    },
    {
      "anonymous": false,
      "inputs": [
        {
          "indexed": false,
          "internalType": "uint256",
          "name": "gameID",
          "type": "uint256"
        },
        {
          "indexed": false,
          "internalType": "address",
          "name": "winner",
          "type": "address"
        }
      ],
      "name": "battleResolved",
      "type": "event"
    },
    {
      "anonymous": false,
      "inputs": [
        {
          "indexed": false,
          "internalType": "uint256",
          "name": "gameID",
          "type": "uint256"
        },
        {
          "indexed": false,
          "internalType": "uint256",
          "name": "attackerLoc",
          "type": "uint256"
        },
        {
          "indexed": false,
          "internalType": "uint256",
          "name": "attackedLoc",
          "type": "uint256"
        }
      ],
      "name": "battleSquares",
      "type": "event"
    },
    {
      "anonymous": false,
      "inputs": [
        {
          "indexed": false,
          "internalType": "uint256",
          "name": "gameID",
          "type": "uint256"
        },
        {
          "indexed": false,
          "internalType": "enum Stratego.Phase",
          "name": "curr",
          "type": "uint8"
        }
      ],
      "name": "currPhase",
      "type": "event"
    },
    {
      "anonymous": false,
      "inputs": [
        {
          "indexed": false,
          "internalType": "address",
          "name": "red",
          "type": "address"
        },
        {
          "indexed": false,
          "internalType": "address",
          "name": "blue",
          "type": "address"
        },
        {
          "indexed": false,
          "internalType": "string",
          "name": "boardString",
          "type": "string"
        }
      ],
      "name": "gameState",
      "type": "event"
    },
    {
      "anonymous": false,
      "inputs": [
        {
          "indexed": false,
          "internalType": "string",
          "name": "boardString",
          "type": "string"
        }
      ],
      "name": "logBoard",
      "type": "event"
    },
    {
      "anonymous": false,
      "inputs": [
        {
          "indexed": false,
          "internalType": "uint256",
          "name": "gameID",
          "type": "uint256"
        },
        {
          "indexed": false,
          "internalType": "address",
          "name": "sender",
          "type": "address"
        },
        {
          "indexed": false,
          "internalType": "uint8",
          "name": "pieceVal",
          "type": "uint8"
        }
      ],
      "name": "pieceClaimed",
      "type": "event"
    },
    {
      "anonymous": false,
      "inputs": [
        {
          "indexed": false,
          "internalType": "uint256",
          "name": "gameID",
          "type": "uint256"
        },
        {
          "indexed": false,
          "internalType": "address",
          "name": "sender",
          "type": "address"
        },
        {
          "indexed": false,
          "internalType": "uint64",
          "name": "board",
          "type": "uint64"
        }
      ],
      "name": "piecesPlaced",
      "type": "event"
    },
    {
      "inputs": [
        {
          "internalType": "uint256",
          "name": "Idx",
          "type": "uint256"
        }
      ],
      "name": "Idx2Coord",
      "outputs": [
        {
          "internalType": "uint256",
          "name": "",
          "type": "uint256"
        },
        {
          "internalType": "uint256",
          "name": "",
          "type": "uint256"
        }
      ],
      "stateMutability": "pure",
      "type": "function"
    },
    {
      "inputs": [
        {
          "internalType": "uint256",
          "name": "gameID",
          "type": "uint256"
        },
        {
          "internalType": "uint8",
          "name": "pieceVal",
          "type": "uint8"
        }
      ],
      "name": "battle",
      "outputs": [],
      "stateMutability": "nonpayable",
      "type": "function"
    },
    {
      "inputs": [
        {
          "internalType": "uint256",
          "name": "x",
          "type": "uint256"
        },
        {
          "internalType": "uint256",
          "name": "y",
          "type": "uint256"
        }
      ],
      "name": "coord2Idx",
      "outputs": [
        {
          "internalType": "uint8",
          "name": "",
          "type": "uint8"
        }
      ],
      "stateMutability": "pure",
      "type": "function"
    },
    {
      "inputs": [
        {
          "internalType": "uint256",
          "name": "gameID",
          "type": "uint256"
        },
        {
          "internalType": "uint256",
          "name": "x",
          "type": "uint256"
        },
        {
          "internalType": "uint256",
          "name": "y",
          "type": "uint256"
        }
      ],
      "name": "coord2Piece",
      "outputs": [
        {
          "internalType": "enum Stratego.Tile",
          "name": "",
          "type": "uint8"
        }
      ],
      "stateMutability": "view",
      "type": "function"
    },
    {
      "inputs": [
        {
          "internalType": "uint256",
          "name": "gameID",
          "type": "uint256"
        }
      ],
      "name": "createBoard",
      "outputs": [
        {
          "internalType": "enum Stratego.Tile[100]",
          "name": "",
          "type": "uint8[100]"
        }
      ],
      "stateMutability": "nonpayable",
      "type": "function"
    },
    {
      "inputs": [],
      "name": "createGame",
      "outputs": [],
      "stateMutability": "nonpayable",
      "type": "function"
    },
    {
      "inputs": [
        {
          "internalType": "uint256",
          "name": "gameID",
          "type": "uint256"
        }
      ],
      "name": "join",
      "outputs": [],
      "stateMutability": "nonpayable",
      "type": "function"
    },
    {
      "inputs": [
        {
          "internalType": "uint256",
          "name": "gameID",
          "type": "uint256"
        },
        {
          "internalType": "uint256",
          "name": "oldX",
          "type": "uint256"
        },
        {
          "internalType": "uint256",
          "name": "oldY",
          "type": "uint256"
        },
        {
          "internalType": "uint256",
          "name": "newX",
          "type": "uint256"
        },
        {
          "internalType": "uint256",
          "name": "newY",
          "type": "uint256"
        }
      ],
      "name": "movePiece",
      "outputs": [],
      "stateMutability": "nonpayable",
      "type": "function"
    },
    {
      "inputs": [
        {
          "internalType": "enum Stratego.Tile",
          "name": "piece",
          "type": "uint8"
        }
      ],
      "name": "piece2Str",
      "outputs": [
        {
          "internalType": "string",
          "name": "",
          "type": "string"
        }
      ],
      "stateMutability": "pure",
      "type": "function"
    },
    {
      "inputs": [
        {
          "internalType": "uint256",
          "name": "gameID",
          "type": "uint256"
        },
        {
          "internalType": "uint64",
          "name": "board",
          "type": "uint64"
        }
      ],
      "name": "place",
      "outputs": [],
      "stateMutability": "nonpayable",
      "type": "function"
    },
    {
      "inputs": [
        {
          "internalType": "uint256",
          "name": "gameID",
          "type": "uint256"
        }
      ],
      "name": "printBoard",
      "outputs": [
        {
          "internalType": "string",
          "name": "",
          "type": "string"
        }
      ],
      "stateMutability": "view",
      "type": "function"
    },
    {
      "inputs": [
        {
          "internalType": "uint256",
          "name": "gameID",
          "type": "uint256"
        }
      ],
      "name": "printPhase",
      "outputs": [
        {
          "internalType": "string",
          "name": "",
          "type": "string"
        }
      ],
      "stateMutability": "view",
      "type": "function"
    }
  ],
  "bytecode": "0x6080604052600080546001600160c01b031916600160801b17905534801561002657600080fd5b50611e2f806100366000396000f3fe608060405234801561001057600080fd5b50600436106100a45760003560e01c8063049878f3146100a957806305cea42d146100c8578063110410f7146100fe57806314515fdb146101545780633650d878146101e65780635c7f00c31461021f5780635fa40e881461023f5780637255d729146102895780637a45a65a1461029157806388f56f09146102c6578063eaae7fe2146102ec578063ec12e3cd14610318575b600080fd5b6100c6600480360360208110156100bf57600080fd5b5035610335565b005b6100e5600480360360208110156100de57600080fd5b5035610569565b6040805192835260208301919091528051918290030190f35b61011b6004803603602081101561011457600080fd5b503561058b565b6040518082610c8080838360005b83811015610141578181015183820152602001610129565b5050505090500191505060405180910390f35b6101716004803603602081101561016a57600080fd5b5035610806565b6040805160208082528351818301528351919283929083019185019080838360005b838110156101ab578181015183820152602001610193565b50505050905090810190601f1680156101d85780820380516001836020036101000a031916815260200191505b509250505060405180910390f35b610209600480360360408110156101fc57600080fd5b5080359060200135610959565b6040805160ff9092168252519081900360200190f35b6101716004803603602081101561023557600080fd5b503560ff16610963565b6102686004803603606081101561025557600080fd5b5080359060208101359060400135610a18565b6040518082600381111561027857fe5b815260200191505060405180910390f35b6100c6610a61565b6100c6600480360360a08110156102a757600080fd5b5080359060208101359060408101359060608101359060800135610ba8565b6100c6600480360360408110156102dc57600080fd5b508035906020013560ff16610dac565b6100c66004803603604081101561030257600080fd5b50803590602001356001600160401b031661112b565b6101716004803603602081101561032e57600080fd5b503561140d565b6000818152600160205260409020600a81015460ff168015610370575060006001820154600160a01b900460ff16600481111561036e57fe5b145b6103bd576040805162461bcd60e51b815260206004820152601960248201527867616d65206e6f7420696e2077616974696e6720737461746560381b604482015290519081900360640190fd5b80546001600160a01b0316331415610415576040805162461bcd60e51b8152602060048201526016602482015275706c6179657220616c726561647920696e2067616d6560501b604482015290519081900360640190fd5b600180820180546001600160a01b031916331780825560ff60a01b1916600160a01b830217905550600060088201819055805460016001600160401b03600160401b808404821692909201160267ffffffffffffffff60401b1990911617905561047e8261058b565b61048e9060028301906064611d08565b50805460018201547f058d4ecc005f117e03f5d28a9d76f3b9fb5ece8c0d1b34fbc84342101ae913c3916001600160a01b0390811691166104ce8561140d565b60405180846001600160a01b03168152602001836001600160a01b0316815260200180602001828103825283818151815260200191508051906020019080838360005b83811015610529578181015183820152602001610511565b50505050905090810190601f1680156105565780820380516001836020036101000a031916815260200191505b5094505050505060405180910390a15050565b6000808260648161057657fe5b048360648161058157fe5b0691509150915091565b610593611da3565b6000828152600160205260408120905b60288161ffff161015610638576000826002018261ffff16606481106105c557fe5b602091828204019190066101000a81548160ff021916908360038111156105e857fe5b02179055506001826002016001836064030361ffff166064811061060857fe5b602091828204019190066101000a81548160ff0219169083600381111561062b57fe5b02179055506001016105a3565b5060285b603c8161ffff16101561068e576002826002018261ffff166064811061065e57fe5b602091828204019190066101000a81548160ff0219169083600381111561068157fe5b021790555060010161063c565b5060038101805460ff60501b1916600360501b1760ff60581b1916600360581b1760ff60a01b1916600360a01b1760ff60a81b1916600360a81b1760ff60701b1916600360701b1760ff60781b1916600360781b1760ff60c01b1916600360c01b1760ff60c81b1916600360c81b17905560098101547f22f6c30659783b7c3c52e4d234192491476c8f04832fca4ce89bc39d6d96a1909061072f9061140d565b6040805160208082528351818301528351919283929083019185019080838360005b83811015610769578181015183820152602001610751565b50505050905090810190601f1680156107965780820380516001836020036101000a031916815260200191505b509250505060405180910390a160408051610c80810191829052906002830190606490826000855b82829054906101000a900460ff1660038111156107d757fe5b8152602060019283018181049485019490930390920291018084116107be57905050505050509150505b919050565b60008181526001602052604081206060916001820154600160a01b900460ff16600481111561083157fe5b141561085d5750506040805180820190915260088152674177616974696e6760c01b6020820152610801565b600180820154600160a01b900460ff16600481111561087857fe5b14156108a5575050604080518082019091526009815268141b1858d95b595b9d60ba1b6020820152610801565b60026001820154600160a01b900460ff1660048111156108c157fe5b14156108ed57505060408051808201909152600881526747616d65706c617960c01b6020820152610801565b60036001820154600160a01b900460ff16600481111561090957fe5b1415610933575050604080518082019091526006815265426174746c6560d01b6020820152610801565b505060408051808201909152600881526723b0b6b2b7bb32b960c11b6020820152919050565b600a919091020190565b6060600282600381111561097357fe5b141561099757506040805180820190915260018152604560f81b6020820152610801565b60038260038111156109a557fe5b14156109c957506040805180820190915260018152600b60fb1b6020820152610801565b60008260038111156109d757fe5b14156109fb57506040805180820190915260018152602960f91b6020820152610801565b50506040805180820190915260018152602160f91b602082015290565b600083815260016020526040812060028101610a348585610959565b60ff1660648110610a4157fe5b602081049091015460ff601f9092166101000a9004169150509392505050565b600054620f422f600160801b9091046001600160401b0390811660450216065b6001600160401b0381166000908152600160205260409020600a015460ff1615610abe57620f422f600182016001600160401b0316069050610a81565b6000805467ffffffffffffffff60801b1916600160801b6001600160401b038481169182029290921783558083526001602081815260408086208054336001600160a01b031990911681178255600682018054600a8401805460ff191688179055600784018a90556009840188905563ff0000ff191663650000001760ff60201b1916606560201b1762ffff0019169055875467ffffffffffffffff198116908816909501909616939093179095558451938452830191909152825190927f0b00eaed7a0d55952ef3dd90aadf03196cf0a192aec8f034c574b5bf7ab4f0ea928290030190a15050565b6000858152600160205260409020600a81015460ff16610c04576040805162461bcd60e51b815260206004820152601260248201527119d85b5948191bd95cdb89dd08195e1a5cdd60721b604482015290519081900360640190fd5b600a85108015610c145750600a84105b8015610c205750600a83105b8015610c2c5750600a82105b610c73576040805162461bcd60e51b8152602060048201526013602482015272636f6f726473206e6f7420696e2072616e676560681b604482015290519081900360640190fd5b60026001820154600160a01b900460ff166004811115610c8f57fe5b14610ccb5760405162461bcd60e51b8152600401808060200182810382526022815260200180611dd86022913960400191505060405180910390fd5b60018101546001600160a01b0316331480610cef575080546001600160a01b031633145b610d2e576040805162461bcd60e51b815260206004820152600b60248201526a6e6f7420706c6179696e6760a81b604482015290519081900360640190fd5b6000610d3a8686610959565b90506000610d488585610959565b90506000610d57898989610a18565b90506000610d668a8888610a18565b85549091506001600160a01b0316331415610d9057610d8b858383878760008061157e565b610da0565b610da0858383878760018061157e565b50505050505050505050565b6000828152600160205260409020600a81015460ff16610e08576040805162461bcd60e51b815260206004820152601260248201527119d85b5948191bd95cdb89dd08195e1a5cdd60721b604482015290519081900360640190fd5b60036001820154600160a01b900460ff166004811115610e2457fe5b14610e65576040805162461bcd60e51b815260206004820152600c60248201526b6e6f7420626174746c696e6760a01b604482015290519081900360640190fd5b600c8260ff1610610eb3576040805162461bcd60e51b8152602060048201526013602482015272696e76616c69642070696563652076616c756560681b604482015290519081900360640190fd5b80546001600160a01b0316331480610ed7575060018101546001600160a01b031633145b610f16576040805162461bcd60e51b815260206004820152600b60248201526a6e6f7420706c6179696e6760a81b604482015290519081900360640190fd5b805460068201546001600160a01b039091163314159060ff161515811415610ffc576006820154610100900460ff1615610f90576040805162461bcd60e51b8152602060048201526016602482015275616c726561647920726563656976656420706965636560501b604482015290519081900360640190fd5b600a8360ff1610610fe1576040805162461bcd60e51b815260206004820152601660248201527563616e6e6f74206d6f7665207468617420706965636560501b604482015290519081900360640190fd5b60068201805461ff00191661010060ff86160217905561106e565b600682015462010000900460ff1615611055576040805162461bcd60e51b8152602060048201526016602482015275616c726561647920726563656976656420706965636560501b604482015290519081900360640190fd5b60068201805462ff000019166201000060ff8616021790555b6040805185815233602082015260ff85168183015290517f83b698126cc9cf6a49dbdf9eb0aa4549909f0e592ad1ec516cbd6ea6e4fb485b9181900360600190a16006820154610100900460ff16158015906110d65750600682015462010000900460ff1615155b156110e4576110e4826118a1565b6040805185815233602082015260ff85168183015290517f83b698126cc9cf6a49dbdf9eb0aa4549909f0e592ad1ec516cbd6ea6e4fb485b9181900360600190a150505050565b6000828152600160205260409020600a81015460ff16611187576040805162461bcd60e51b815260206004820152601260248201527119d85b5948191bd95cdb89dd08195e1a5cdd60721b604482015290519081900360640190fd5b600180820154600160a01b900460ff1660048111156111a257fe5b146111ea576040805162461bcd60e51b815260206004820152601360248201527267616d6520696e2077726f6e6720706861736560681b604482015290519081900360640190fd5b80546001600160a01b031633148061120e575060018101546001600160a01b031633145b61124d576040805162461bcd60e51b815260206004820152600b60248201526a6e6f7420706c6179696e6760a81b604482015290519081900360640190fd5b80546001600160a01b03163314156112bf576007810154156112af576040805162461bcd60e51b8152602060048201526016602482015275149959081c1a5958d95cc8185b1c9958591e481cd95d60521b604482015290519081900360640190fd5b6001600160401b03821660078201555b60018101546001600160a01b031633141561133557600881015415611325576040805162461bcd60e51b8152602060048201526017602482015276109b1d59481c1a5958d95cc8185b1c9958591e481cd95d604a1b604482015290519081900360640190fd5b6001600160401b03821660088201555b604080518481523360208201526001600160401b0384168183015290517f6bb02b2def176c22e934d548659b4597e571a43213f9dd51a3f0341ec2a50cd99181900360600190a16008810154158015906113925750600781015415155b156113ad5760018101805460ff60a01b1916600160a11b1790555b7f6441bcf05927d99b045714692cab014a3d4db32a827c40492a3147f69aeb5dad838260010160149054906101000a900460ff16604051808381526020018260048111156113f757fe5b81526020019250505060405180910390a1505050565b600081815260016020526040908190208151606480825260a082019093526060928391906020820181803683370190505090508060005b606481101561157557600384600201826064811061145e57fe5b602081049091015460ff601f9092166101000a900416600381111561147f57fe5b14156114b257600b60fb1b82828151811061149657fe5b60200101906001600160f81b031916908160001a90535061156d565b60008460020182606481106114c357fe5b602081049091015460ff601f9092166101000a90041660038111156114e457fe5b14156114fb57602960f91b82828151811061149657fe5b600184600201826064811061150c57fe5b602081049091015460ff601f9092166101000a900416600381111561152d57fe5b141561154457602160f91b82828151811061149657fe5b604560f81b82828151811061155557fe5b60200101906001600160f81b031916908160001a9053505b600101611444565b50949350505050565b600687015460ff161515811515146115cd576040805162461bcd60e51b815260206004820152600d60248201526c3737ba103cb7bab9103a3ab93760991b604482015290519081900360640190fd5b8160038111156115d957fe5b8660038111156115e557fe5b14611630576040805162461bcd60e51b815260206004820152601660248201527563616e6e6f74206d6f7665207468617420706965636560501b604482015290519081900360640190fd5b81600381111561163c57fe5b85600381111561164857fe5b141580156116625750600385600381111561165f57fe5b14155b6116a7576040805162461bcd60e51b815260206004820152601160248201527063616e6e6f74206d6f766520746865726560781b604482015290519081900360640190fd5b60006116cc600a60ff87160460ff16600a8660ff16816116c357fe5b0460ff16611b80565b905060006116f3600a60ff88160660ff16600a8760ff16816116ea57fe5b0660ff16611b80565b9050811580156117035750806001145b806117175750816001148015611717575080155b61175e576040805162461bcd60e51b815260206004820152601360248201527263616e6e6f74206a756d70207371756172657360681b604482015290519081900360640190fd5b600287600381111561176c57fe5b14156117fd576002896002018760ff166064811061178657fe5b602091828204019190066101000a81548160ff021916908360038111156117a957fe5b021790555083896002018660ff16606481106117c157fe5b602091828204019190066101000a81548160ff021916908360038111156117e457fe5b021790555060068901805460ff19168415179055611896565b6001890180546003919060ff60a01b1916600160a01b83021790555060068901805463ff0000001916630100000060ff8981169182029290921760ff60201b1916600160201b9289169283021790925560098b01546040805191825260208201939093528083019190915290517f454bce2fbfedddc9068a4f38f0ad71415e1e9001293007cb9ffdaa3743af6fc4916060908290030190a15b505050505050505050565b6006810154600290818301906301000000900460ff16606481106118c157fe5b602091828204019190066101000a81548160ff021916908360038111156118e457fe5b0217905550600681015462010000900460ff16600b14156119625760018101805460ff60a01b1916600160a21b179055600981015460068201546040805192835260ff9091161515602083015280517f49a64b98cd43c48f1e0338cc32f2712938f1df5c0287875d17aff532e0e502c69281900390910190a1611b7d565b600681015462010000810460ff908116610100909204161415611a5f576119a560405180604001604052806005815260200164195c5d585b60da1b815250611b9c565b600681015460029081830190600160201b900460ff16606481106119c557fe5b602091828204019190066101000a81548160ff021916908360038111156119e857fe5b02179055506009810154604080519182526000602083015280517fa032477e7762cf074cc5b49af2cefdef708d5610f6e0517138b134f4d241b5399281900390910190a160068101805460ff81161560ff199091161763ffffff00191663650000001760ff60201b1916606560201b179055611b7d565b6000611a6a82611c42565b9050600081611a835782546001600160a01b0316611a92565b60018301546001600160a01b03165b600684015490915060ff1615158215151415611b0557600683015460ff16611abb576000611abe565b60015b60068401546002850190600160201b900460ff1660648110611adc57fe5b602091828204019190066101000a81548160ff02191690836003811115611aff57fe5b02179055505b60068301805460ff81161560ff199091161763ffffff00191663650000001760ff60201b1916606560201b1790556009830154604080519182526001600160a01b038316602083015280517fa032477e7762cf074cc5b49af2cefdef708d5610f6e0517138b134f4d241b5399281900390910190a150505b50565b6000818311611b9157828203611b95565b8183035b9392505050565b611b7d816040516024018080602001828103825283818151815260200191508051906020019080838360005b83811015611be0578181015183820152602001611bc8565b50505050905090810190601f168015611c0d5780820380516001836020036101000a031916815260200191505b5060408051601f198184030181529190526020810180516001600160e01b031663104c13eb60e21b1790529250611ce7915050565b600681015460009060ff8082168015929091600a6201000090920416148015611c7857506006840154610100900460ff16600814155b15611c8557509050610801565b6006840154610100900460ff166009148015611cae5750600684015462010000900460ff166001145b15611cbc5791506108019050565b600684015460ff62010000820481166101009092041610611cdd5781611cdf565b805b949350505050565b80516a636f6e736f6c652e6c6f67602083016000808483855afa5050505050565b600483019183908215611d935791602002820160005b83821115611d6457835183826101000a81548160ff02191690836003811115611d4357fe5b02179055509260200192600101602081600001049283019260010302611d1e565b8015611d915782816101000a81549060ff0219169055600101602081600001049283019260010302611d64565b505b50611d9f929150611dc2565b5090565b60405180610c8001604052806064906020820280368337509192915050565b5b80821115611d9f5760008155600101611dc356fe63616e6e6f74206d6f766520647572696e6720746869732067616d65207068617365a2646970667358221220f9ba28e867d69f90977c49077b09d2b65102514b5428803ca931a561c9dfbef564736f6c63430007030033",
  "linkReferences": {},
  "deployedLinkReferences": {}
}