{
  "_format": "hh-sol-artifact-1",
  "contractName": "Stratego",
  "sourceName": "contracts/Stratego.sol",
  "abi": [
    {
      "anonymous": false,
      "inputs": [
        {
          "indexed": false,
          "internalType": "address",
          "name": "from",
          "type": "address"
        },
        {
          "indexed": false,
          "internalType": "uint256",
          "name": "gameID",
          "type": "uint256"
        }
      ],
      "name": "GameIDs",
      "type": "event"
    },
    {
      "anonymous": false,
      "inputs": [
        {
          "indexed": false,
          "internalType": "uint256",
          "name": "gameID",
          "type": "uint256"
        },
        {
          "indexed": false,
          "internalType": "uint256",
          "name": "attackerLoc",
          "type": "uint256"
        },
        {
          "indexed": false,
          "internalType": "uint256",
          "name": "attackedLoc",
          "type": "uint256"
        }
      ],
      "name": "battleLog",
      "type": "event"
    },
    {
      "anonymous": false,
      "inputs": [
        {
          "indexed": false,
          "internalType": "uint256",
          "name": "gameID",
          "type": "uint256"
        },
        {
          "indexed": false,
          "internalType": "enum Stratego.Phase",
          "name": "curr",
          "type": "uint8"
        }
      ],
      "name": "currPhase",
      "type": "event"
    },
    {
      "anonymous": false,
      "inputs": [
        {
          "indexed": false,
          "internalType": "address",
          "name": "red",
          "type": "address"
        },
        {
          "indexed": false,
          "internalType": "address",
          "name": "blue",
          "type": "address"
        },
        {
          "indexed": false,
          "internalType": "string",
          "name": "boardString",
          "type": "string"
        }
      ],
      "name": "gameState",
      "type": "event"
    },
    {
      "anonymous": false,
      "inputs": [
        {
          "indexed": false,
          "internalType": "string",
          "name": "boardString",
          "type": "string"
        }
      ],
      "name": "logBoard",
      "type": "event"
    },
    {
      "anonymous": false,
      "inputs": [
        {
          "indexed": false,
          "internalType": "uint256",
          "name": "gameID",
          "type": "uint256"
        },
        {
          "indexed": false,
          "internalType": "address",
          "name": "sender",
          "type": "address"
        },
        {
          "indexed": false,
          "internalType": "uint64",
          "name": "board",
          "type": "uint64"
        }
      ],
      "name": "piecesPlaced",
      "type": "event"
    },
    {
      "inputs": [
        {
          "internalType": "uint256",
          "name": "Idx",
          "type": "uint256"
        }
      ],
      "name": "Idx2Coord",
      "outputs": [
        {
          "internalType": "uint256",
          "name": "",
          "type": "uint256"
        },
        {
          "internalType": "uint256",
          "name": "",
          "type": "uint256"
        }
      ],
      "stateMutability": "pure",
      "type": "function"
    },
    {
      "inputs": [
        {
          "internalType": "uint256",
          "name": "newX",
          "type": "uint256"
        },
        {
          "internalType": "uint256",
          "name": "newY",
          "type": "uint256"
        }
      ],
      "name": "battle",
      "outputs": [],
      "stateMutability": "nonpayable",
      "type": "function"
    },
    {
      "inputs": [
        {
          "internalType": "uint256",
          "name": "x",
          "type": "uint256"
        },
        {
          "internalType": "uint256",
          "name": "y",
          "type": "uint256"
        }
      ],
      "name": "coord2Idx",
      "outputs": [
        {
          "internalType": "uint8",
          "name": "",
          "type": "uint8"
        }
      ],
      "stateMutability": "pure",
      "type": "function"
    },
    {
      "inputs": [
        {
          "internalType": "uint256",
          "name": "gameID",
          "type": "uint256"
        },
        {
          "internalType": "uint256",
          "name": "x",
          "type": "uint256"
        },
        {
          "internalType": "uint256",
          "name": "y",
          "type": "uint256"
        }
      ],
      "name": "coord2Piece",
      "outputs": [
        {
          "internalType": "enum Stratego.TileType",
          "name": "",
          "type": "uint8"
        }
      ],
      "stateMutability": "view",
      "type": "function"
    },
    {
      "inputs": [
        {
          "internalType": "uint256",
          "name": "gameID",
          "type": "uint256"
        }
      ],
      "name": "createBoard",
      "outputs": [
        {
          "internalType": "enum Stratego.TileType[100]",
          "name": "",
          "type": "uint8[100]"
        }
      ],
      "stateMutability": "nonpayable",
      "type": "function"
    },
    {
      "inputs": [],
      "name": "createGame",
      "outputs": [],
      "stateMutability": "nonpayable",
      "type": "function"
    },
    {
      "inputs": [
        {
          "internalType": "uint256",
          "name": "gameID",
          "type": "uint256"
        }
      ],
      "name": "join",
      "outputs": [],
      "stateMutability": "nonpayable",
      "type": "function"
    },
    {
      "inputs": [
        {
          "internalType": "uint256",
          "name": "gameID",
          "type": "uint256"
        },
        {
          "internalType": "uint256",
          "name": "oldX",
          "type": "uint256"
        },
        {
          "internalType": "uint256",
          "name": "oldY",
          "type": "uint256"
        },
        {
          "internalType": "uint256",
          "name": "newX",
          "type": "uint256"
        },
        {
          "internalType": "uint256",
          "name": "newY",
          "type": "uint256"
        }
      ],
      "name": "movePiece",
      "outputs": [],
      "stateMutability": "nonpayable",
      "type": "function"
    },
    {
      "inputs": [
        {
          "internalType": "enum Stratego.TileType",
          "name": "piece",
          "type": "uint8"
        }
      ],
      "name": "piece2Str",
      "outputs": [
        {
          "internalType": "string",
          "name": "",
          "type": "string"
        }
      ],
      "stateMutability": "pure",
      "type": "function"
    },
    {
      "inputs": [
        {
          "internalType": "uint256",
          "name": "gameID",
          "type": "uint256"
        },
        {
          "internalType": "uint64",
          "name": "board",
          "type": "uint64"
        }
      ],
      "name": "place",
      "outputs": [],
      "stateMutability": "nonpayable",
      "type": "function"
    },
    {
      "inputs": [
        {
          "internalType": "uint256",
          "name": "gameID",
          "type": "uint256"
        }
      ],
      "name": "printBoard",
      "outputs": [
        {
          "internalType": "string",
          "name": "",
          "type": "string"
        }
      ],
      "stateMutability": "view",
      "type": "function"
    },
    {
      "inputs": [
        {
          "internalType": "uint256",
          "name": "gameID",
          "type": "uint256"
        }
      ],
      "name": "printPhase",
      "outputs": [
        {
          "internalType": "string",
          "name": "",
          "type": "string"
        }
      ],
      "stateMutability": "view",
      "type": "function"
    }
  ],
  "bytecode": "0x608060405260008060006101000a81548167ffffffffffffffff021916908367ffffffffffffffff16021790555060008060086101000a81548167ffffffffffffffff021916908367ffffffffffffffff1602179055506001600060106101000a81548167ffffffffffffffff021916908367ffffffffffffffff16021790555034801561008c57600080fd5b506126488061009c6000396000f3fe608060405234801561001057600080fd5b50600436106100b45760003560e01c80635c7f00c3116100715780635c7f00c3146102c85780635fa40e88146103725780637255d729146103d35780637a45a65a146103dd578063eaae7fe214610433578063ec12e3cd14610475576100b4565b8063049878f3146100b957806305cea42d146100e7578063110410f71461013057806314515fdb1461019a5780632a0c5221146102415780633650d87814610279575b600080fd5b6100e5600480360360208110156100cf57600080fd5b810190808035906020019092919050505061051c565b005b610113600480360360208110156100fd57600080fd5b81019080803590602001909291905050506108b2565b604051808381526020018281526020019250505060405180910390f35b61015c6004803603602081101561014657600080fd5b81019080803590602001909291905050506108d4565b6040518082606460200280838360005b8381101561018757808201518184015260208101905061016c565b5050505090500191505060405180910390f35b6101c6600480360360208110156101b057600080fd5b8101908080359060200190929190505050610cde565b6040518080602001828103825283818151815260200191508051906020019080838360005b838110156102065780820151818401526020810190506101eb565b50505050905090810190601f1680156102335780820380516001836020036101000a031916815260200191505b509250505060405180910390f35b6102776004803603604081101561025757600080fd5b810190808035906020019092919080359060200190929190505050610eee565b005b6102af6004803603604081101561028f57600080fd5b810190808035906020019092919080359060200190929190505050610ef2565b604051808260ff16815260200191505060405180910390f35b6102f7600480360360208110156102de57600080fd5b81019080803560ff169060200190929190505050610f02565b6040518080602001828103825283818151815260200191508051906020019080838360005b8381101561033757808201518184015260208101905061031c565b50505050905090810190601f1680156103645780820380516001836020036101000a031916815260200191505b509250505060405180910390f35b6103b26004803603606081101561038857600080fd5b81019080803590602001909291908035906020019092919080359060200190929190505050611055565b604051808260038111156103c257fe5b815260200191505060405180910390f35b6103db6110a8565b005b610431600480360360a08110156103f357600080fd5b810190808035906020019092919080359060200190929190803590602001909291908035906020019092919080359060200190929190505050611353565b005b6104736004803603604081101561044957600080fd5b8101908080359060200190929190803567ffffffffffffffff1690602001909291905050506116eb565b005b6104a16004803603602081101561048b57600080fd5b8101908080359060200190929190505050611c1b565b6040518080602001828103825283818151815260200191508051906020019080838360005b838110156104e15780820151818401526020810190506104c6565b50505050905090810190601f16801561050e5780820380516001836020036101000a031916815260200191505b509250505060405180910390f35b600060016000838152602001908152602001600020905080600a0160009054906101000a900460ff16801561057857506000600481111561055957fe5b8160010160149054906101000a900460ff16600481111561057657fe5b145b6105ea576040517f08c379a00000000000000000000000000000000000000000000000000000000081526004018080602001828103825260198152602001807f67616d65206e6f7420696e2077616974696e672073746174650000000000000081525060200191505060405180910390fd5b3373ffffffffffffffffffffffffffffffffffffffff168160000160009054906101000a900473ffffffffffffffffffffffffffffffffffffffff1673ffffffffffffffffffffffffffffffffffffffff1614156106b0576040517f08c379a00000000000000000000000000000000000000000000000000000000081526004018080602001828103825260168152602001807f706c6179657220616c726561647920696e2067616d650000000000000000000081525060200191505060405180910390fd5b338160010160006101000a81548173ffffffffffffffffffffffffffffffffffffffff021916908373ffffffffffffffffffffffffffffffffffffffff16021790555060018160010160146101000a81548160ff0219169083600481111561071457fe5b0217905550600081600801819055506000600881819054906101000a900467ffffffffffffffff168092919060010191906101000a81548167ffffffffffffffff021916908367ffffffffffffffff16021790555050610773826108d4565b8160020190606461078592919061250e565b507f058d4ecc005f117e03f5d28a9d76f3b9fb5ece8c0d1b34fbc84342101ae913c38160000160009054906101000a900473ffffffffffffffffffffffffffffffffffffffff168260010160009054906101000a900473ffffffffffffffffffffffffffffffffffffffff166107fa85611c1b565b604051808473ffffffffffffffffffffffffffffffffffffffff1681526020018373ffffffffffffffffffffffffffffffffffffffff16815260200180602001828103825283818151815260200191508051906020019080838360005b83811015610872578082015181840152602081019050610857565b50505050905090810190601f16801561089f5780820380516001836020036101000a031916815260200191505b5094505050505060405180910390a15050565b600080826064816108bf57fe5b04836064816108ca57fe5b0691509150915091565b6108dc6125b0565b600060016000848152602001908152602001600020905060005b60288161ffff161015610990576000826002018261ffff166064811061091857fe5b602091828204019190066101000a81548160ff0219169083600381111561093b57fe5b02179055506001826002016001836064030361ffff166064811061095b57fe5b602091828204019190066101000a81548160ff0219169083600381111561097e57fe5b021790555080806001019150506108f6565b506000602890505b603c8161ffff1610156109ef576002826002018261ffff16606481106109ba57fe5b602091828204019190066101000a81548160ff021916908360038111156109dd57fe5b02179055508080600101915050610998565b50600381600201602a60648110610a0257fe5b602091828204019190066101000a81548160ff02191690836003811115610a2557fe5b0217905550600381600201602b60648110610a3c57fe5b602091828204019190066101000a81548160ff02191690836003811115610a5f57fe5b0217905550600381600201603460648110610a7657fe5b602091828204019190066101000a81548160ff02191690836003811115610a9957fe5b0217905550600381600201603560648110610ab057fe5b602091828204019190066101000a81548160ff02191690836003811115610ad357fe5b0217905550600381600201602e60648110610aea57fe5b602091828204019190066101000a81548160ff02191690836003811115610b0d57fe5b0217905550600381600201602f60648110610b2457fe5b602091828204019190066101000a81548160ff02191690836003811115610b4757fe5b0217905550600381600201603860648110610b5e57fe5b602091828204019190066101000a81548160ff02191690836003811115610b8157fe5b0217905550600381600201603960648110610b9857fe5b602091828204019190066101000a81548160ff02191690836003811115610bbb57fe5b02179055507f22f6c30659783b7c3c52e4d234192491476c8f04832fca4ce89bc39d6d96a190610bee8260090154611c1b565b6040518080602001828103825283818151815260200191508051906020019080838360005b83811015610c2e578082015181840152602081019050610c13565b50505050905090810190601f168015610c5b5780820380516001836020036101000a031916815260200191505b509250505060405180910390a180600201606480602002604051908101604052809291908260648015610cd1576020028201916000905b82829054906101000a900460ff166003811115610cab57fe5b81526020019060010190602082600001049283019260010382029150808411610c925790505b5050505050915050919050565b6060600060016000848152602001908152602001600020905060006004811115610d0457fe5b8160010160149054906101000a900460ff166004811115610d2157fe5b1415610d65576040518060400160405280600881526020017f4177616974696e67000000000000000000000000000000000000000000000000815250915050610ee9565b60016004811115610d7257fe5b8160010160149054906101000a900460ff166004811115610d8f57fe5b1415610dd3576040518060400160405280600981526020017f506c6163656d656e740000000000000000000000000000000000000000000000815250915050610ee9565b60026004811115610de057fe5b8160010160149054906101000a900460ff166004811115610dfd57fe5b1415610e41576040518060400160405280600881526020017f47616d65706c6179000000000000000000000000000000000000000000000000815250915050610ee9565b60036004811115610e4e57fe5b8160010160149054906101000a900460ff166004811115610e6b57fe5b1415610eaf576040518060400160405280600681526020017f426174746c650000000000000000000000000000000000000000000000000000815250915050610ee9565b6040518060400160405280600881526020017f47616d656f7665720000000000000000000000000000000000000000000000008152509150505b919050565b5050565b60008183600a0201905092915050565b606060026003811115610f1157fe5b826003811115610f1d57fe5b1415610f60576040518060400160405280600181526020017f45000000000000000000000000000000000000000000000000000000000000008152509050611050565b600380811115610f6c57fe5b826003811115610f7857fe5b1415610fbb576040518060400160405280600181526020017f58000000000000000000000000000000000000000000000000000000000000008152509050611050565b60006003811115610fc857fe5b826003811115610fd457fe5b1415611017576040518060400160405280600181526020017f52000000000000000000000000000000000000000000000000000000000000008152509050611050565b6040518060400160405280600181526020017f420000000000000000000000000000000000000000000000000000000000000081525090505b919050565b6000806001600086815260200190815260200160002090508060020161107b8585610ef2565b60ff166064811061108857fe5b602091828204019190069054906101000a900460ff169150509392505050565b6000620f422f67ffffffffffffffff166045600060109054906101000a900467ffffffffffffffff160267ffffffffffffffff16816110e357fe5b0690505b600160008267ffffffffffffffff168152602001908152602001600020600a0160009054906101000a900460ff161561114557620f422f67ffffffffffffffff166001820167ffffffffffffffff168161113d57fe5b0690506110e7565b80600060106101000a81548167ffffffffffffffff021916908367ffffffffffffffff1602179055506000600160008367ffffffffffffffff1681526020019081526020016000209050338160000160006101000a81548173ffffffffffffffffffffffffffffffffffffffff021916908373ffffffffffffffffffffffffffffffffffffffff16021790555060008160060160006101000a81548160ff021916908360018111156111f357fe5b0217905550600181600a0160006101000a81548160ff021916908315150217905550600081600701819055508167ffffffffffffffff16816009018190555060658160060160016101000a81548160ff021916908360ff16021790555060658160060160026101000a81548160ff021916908360ff16021790555060008160060160036101000a81548160ff021916908360ff16021790555060008160060160046101000a81548160ff021916908360ff16021790555060008081819054906101000a900467ffffffffffffffff168092919060010191906101000a81548167ffffffffffffffff021916908367ffffffffffffffff160217905550507f0b00eaed7a0d55952ef3dd90aadf03196cf0a192aec8f034c574b5bf7ab4f0ea3383604051808373ffffffffffffffffffffffffffffffffffffffff1681526020018267ffffffffffffffff1681526020019250505060405180910390a15050565b600060016000878152602001908152602001600020905080600a0160009054906101000a900460ff166113ee576040517f08c379a00000000000000000000000000000000000000000000000000000000081526004018080602001828103825260128152602001807f67616d6520646f65736e2774206578697374000000000000000000000000000081525060200191505060405180910390fd5b600a851080156113fe5750600a84105b801561140a5750600a83105b80156114165750600a82105b611488576040517f08c379a00000000000000000000000000000000000000000000000000000000081526004018080602001828103825260138152602001807f636f6f726473206e6f7420696e2072616e67650000000000000000000000000081525060200191505060405180910390fd5b6002600481111561149557fe5b8160010160149054906101000a900460ff1660048111156114b257fe5b14611508576040517f08c379a00000000000000000000000000000000000000000000000000000000081526004018080602001828103825260228152602001806125f16022913960400191505060405180910390fd5b8060010160009054906101000a900473ffffffffffffffffffffffffffffffffffffffff1673ffffffffffffffffffffffffffffffffffffffff163373ffffffffffffffffffffffffffffffffffffffff1614806115b557508060000160009054906101000a900473ffffffffffffffffffffffffffffffffffffffff1673ffffffffffffffffffffffffffffffffffffffff163373ffffffffffffffffffffffffffffffffffffffff16145b611627576040517f08c379a000000000000000000000000000000000000000000000000000000000815260040180806020018281038252600b8152602001807f6e6f7420706c6179696e6700000000000000000000000000000000000000000081525060200191505060405180910390fd5b60006116338686610ef2565b905060006116418585610ef2565b90506000611650898989611055565b9050600061165f8a8888611055565b90508460000160009054906101000a900473ffffffffffffffffffffffffffffffffffffffff1673ffffffffffffffffffffffffffffffffffffffff163373ffffffffffffffffffffffffffffffffffffffff1614156116ce576116c98583838787600080611efe565b6116df565b6116de8583838787600180611efe565b5b50505050505050505050565b600060016000848152602001908152602001600020905080600a0160009054906101000a900460ff16611786576040517f08c379a00000000000000000000000000000000000000000000000000000000081526004018080602001828103825260128152602001807f67616d6520646f65736e2774206578697374000000000000000000000000000081525060200191505060405180910390fd5b6001600481111561179357fe5b8160010160149054906101000a900460ff1660048111156117b057fe5b14611823576040517f08c379a00000000000000000000000000000000000000000000000000000000081526004018080602001828103825260138152602001807f67616d6520696e2077726f6e672070686173650000000000000000000000000081525060200191505060405180910390fd5b8060000160009054906101000a900473ffffffffffffffffffffffffffffffffffffffff1673ffffffffffffffffffffffffffffffffffffffff163373ffffffffffffffffffffffffffffffffffffffff1614806118d057508060010160009054906101000a900473ffffffffffffffffffffffffffffffffffffffff1673ffffffffffffffffffffffffffffffffffffffff163373ffffffffffffffffffffffffffffffffffffffff16145b611942576040517f08c379a000000000000000000000000000000000000000000000000000000000815260040180806020018281038252600b8152602001807f6e6f7420706c6179696e6700000000000000000000000000000000000000000081525060200191505060405180910390fd5b8060000160009054906101000a900473ffffffffffffffffffffffffffffffffffffffff1673ffffffffffffffffffffffffffffffffffffffff163373ffffffffffffffffffffffffffffffffffffffff161415611a28576000816007015414611a14576040517f08c379a00000000000000000000000000000000000000000000000000000000081526004018080602001828103825260168152602001807f5265642070696563657320616c7265616479207365740000000000000000000081525060200191505060405180910390fd5b8167ffffffffffffffff1681600701819055505b8060010160009054906101000a900473ffffffffffffffffffffffffffffffffffffffff1673ffffffffffffffffffffffffffffffffffffffff163373ffffffffffffffffffffffffffffffffffffffff161415611b0e576000816008015414611afa576040517f08c379a00000000000000000000000000000000000000000000000000000000081526004018080602001828103825260178152602001807f426c75652070696563657320616c72656164792073657400000000000000000081525060200191505060405180910390fd5b8167ffffffffffffffff1681600801819055505b7f6bb02b2def176c22e934d548659b4597e571a43213f9dd51a3f0341ec2a50cd9833384604051808481526020018373ffffffffffffffffffffffffffffffffffffffff1681526020018267ffffffffffffffff168152602001935050505060405180910390a16000816008015414158015611b8f57506000816007015414155b15611bbb5760028160010160146101000a81548160ff02191690836004811115611bb557fe5b02179055505b7f6441bcf05927d99b045714692cab014a3d4db32a827c40492a3147f69aeb5dad838260010160149054906101000a900460ff1660405180838152602001826004811115611c0557fe5b81526020019250505060405180910390a1505050565b606060006001600084815260200190815260200160002090506060606461ffff1667ffffffffffffffff81118015611c5257600080fd5b506040519080825280601f01601f191660200182016040528015611c855781602001600182028036833780820191505090505b509050606081905060005b606461ffff16811015611ef257600380811115611ca957fe5b846002018260648110611cb857fe5b602091828204019190069054906101000a900460ff166003811115611cd957fe5b1415611d40577f5800000000000000000000000000000000000000000000000000000000000000828281518110611d0c57fe5b60200101907effffffffffffffffffffffffffffffffffffffffffffffffffffffffffffff1916908160001a905350611ee5565b60006003811115611d4d57fe5b846002018260648110611d5c57fe5b602091828204019190069054906101000a900460ff166003811115611d7d57fe5b1415611de4577f5200000000000000000000000000000000000000000000000000000000000000828281518110611db057fe5b60200101907effffffffffffffffffffffffffffffffffffffffffffffffffffffffffffff1916908160001a905350611ee5565b60016003811115611df157fe5b846002018260648110611e0057fe5b602091828204019190069054906101000a900460ff166003811115611e2157fe5b1415611e88577f4200000000000000000000000000000000000000000000000000000000000000828281518110611e5457fe5b60200101907effffffffffffffffffffffffffffffffffffffffffffffffffffffffffffff1916908160001a905350611ee5565b7f4500000000000000000000000000000000000000000000000000000000000000828281518110611eb557fe5b60200101907effffffffffffffffffffffffffffffffffffffffffffffffffffffffffffff1916908160001a9053505b8080600101915050611c90565b50809350505050919050565b8660060160009054906101000a900460ff166001811115611f1b57fe5b816001811115611f2757fe5b14611f9a576040517f08c379a000000000000000000000000000000000000000000000000000000000815260040180806020018281038252600d8152602001807f6e6f7420796f7572207475726e0000000000000000000000000000000000000081525060200191505060405180910390fd5b816003811115611fa657fe5b866003811115611fb257fe5b14612025576040517f08c379a00000000000000000000000000000000000000000000000000000000081526004018080602001828103825260168152602001807f63616e6e6f74206d6f766520746861742070696563650000000000000000000081525060200191505060405180910390fd5b81600381111561203157fe5b85600381111561203d57fe5b14158015612061575060038081111561205257fe5b85600381111561205e57fe5b14155b6120d3576040517f08c379a00000000000000000000000000000000000000000000000000000000081526004018080602001828103825260118152602001807f63616e6e6f74206d6f766520746865726500000000000000000000000000000081525060200191505060405180910390fd5b60006120ff600a8660ff16816120e557fe5b0460ff16600a8660ff16816120f657fe5b0460ff166123b8565b90506121476040518060400160405280601681526020017f6f6c644964783a2025732c206e65774964783a202573000000000000000000008152508660ff168660ff166123d5565b6000612173600a8760ff168161215957fe5b0660ff16600a8760ff168161216a57fe5b0660ff166123b8565b90506000821480156121855750600181145b8061219c575060018214801561219b5750600081145b5b61220e576040517f08c379a00000000000000000000000000000000000000000000000000000000081526004018080602001828103825260138152602001807f63616e6e6f74206a756d7020737175617265730000000000000000000000000081525060200191505060405180910390fd5b6002600381111561221b57fe5b87600381111561222757fe5b14156122f5576002896002018760ff166064811061224157fe5b602091828204019190066101000a81548160ff0219169083600381111561226457fe5b021790555083896002018660ff166064811061227c57fe5b602091828204019190066101000a81548160ff0219169083600381111561229f57fe5b0217905550600060018111156122b157fe5b8360018111156122bd57fe5b146122c95760006122cc565b60015b8960060160006101000a81548160ff021916908360018111156122eb57fe5b02179055506123ad565b6003600481111561230257fe5b8960010160149054906101000a900460ff16600481111561231f57fe5b50507fd2e02d038eb2ccbb5e3eff659194d6eb7d532c007287321f2bae3ebd3098f6c689600901548787604051808481526020018360ff1681526020018260ff168152602001935050505060405180910390a1858960060160016101000a81548160ff021916908360ff160217905550848960060160026101000a81548160ff021916908360ff1602179055505b505050505050505050565b60008183116123c9578282036123cd565b8183035b905092915050565b6124e08383836040516024018080602001848152602001838152602001828103825285818151815260200191508051906020019080838360005b8381101561242a57808201518184015260208101905061240f565b50505050905090810190601f1680156124575780820380516001836020036101000a031916815260200191505b509450505050506040516020818303038152906040527f969cdd03000000000000000000000000000000000000000000000000000000007bffffffffffffffffffffffffffffffffffffffffffffffffffffffff19166020820180517bffffffffffffffffffffffffffffffffffffffffffffffffffffffff83818316178352505050506124e5565b505050565b60008151905060006a636f6e736f6c652e6c6f679050602083016000808483855afa5050505050565b826064601f0160209004810192821561259f5791602002820160005b8382111561257057835183826101000a81548160ff0219169083600381111561254f57fe5b0217905550926020019260010160208160000104928301926001030261252a565b801561259d5782816101000a81549060ff0219169055600101602081600001049283019260010302612570565b505b5090506125ac91906125d3565b5090565b60405180610c800160405280606490602082028036833780820191505090505090565b5b808211156125ec5760008160009055506001016125d4565b509056fe63616e6e6f74206d6f766520647572696e6720746869732067616d65207068617365a2646970667358221220608874f91e629a3607ac9d5021e2a5b36e688600cbb5d291acffab983b2ffe5864736f6c63430007030033",
  "linkReferences": {},
  "deployedLinkReferences": {}
}