{
  "_format": "hh-sol-artifact-1",
  "contractName": "Stratego",
  "sourceName": "contracts/Stratego.sol",
  "abi": [
    {
      "anonymous": false,
      "inputs": [
        {
          "indexed": false,
          "internalType": "address",
          "name": "from",
          "type": "address"
        },
        {
          "indexed": false,
          "internalType": "uint256",
          "name": "gameID",
          "type": "uint256"
        }
      ],
      "name": "GameIDs",
      "type": "event"
    },
    {
      "anonymous": false,
      "inputs": [
        {
          "indexed": false,
          "internalType": "uint256",
          "name": "gameID",
          "type": "uint256"
        },
        {
          "indexed": false,
          "internalType": "bool",
          "name": "winner",
          "type": "bool"
        }
      ],
      "name": "GameoverLog",
      "type": "event"
    },
    {
      "anonymous": false,
      "inputs": [
        {
          "indexed": true,
          "internalType": "bytes32",
          "name": "role",
          "type": "bytes32"
        },
        {
          "indexed": true,
          "internalType": "bytes32",
          "name": "previousAdminRole",
          "type": "bytes32"
        },
        {
          "indexed": true,
          "internalType": "bytes32",
          "name": "newAdminRole",
          "type": "bytes32"
        }
      ],
      "name": "RoleAdminChanged",
      "type": "event"
    },
    {
      "anonymous": false,
      "inputs": [
        {
          "indexed": true,
          "internalType": "bytes32",
          "name": "role",
          "type": "bytes32"
        },
        {
          "indexed": true,
          "internalType": "address",
          "name": "account",
          "type": "address"
        },
        {
          "indexed": true,
          "internalType": "address",
          "name": "sender",
          "type": "address"
        }
      ],
      "name": "RoleGranted",
      "type": "event"
    },
    {
      "anonymous": false,
      "inputs": [
        {
          "indexed": true,
          "internalType": "bytes32",
          "name": "role",
          "type": "bytes32"
        },
        {
          "indexed": true,
          "internalType": "address",
          "name": "account",
          "type": "address"
        },
        {
          "indexed": true,
          "internalType": "address",
          "name": "sender",
          "type": "address"
        }
      ],
      "name": "RoleRevoked",
      "type": "event"
    },
    {
      "anonymous": false,
      "inputs": [
        {
          "indexed": false,
          "internalType": "uint256",
          "name": "gameID",
          "type": "uint256"
        },
        {
          "indexed": false,
          "internalType": "uint256",
          "name": "attLoc",
          "type": "uint256"
        },
        {
          "indexed": false,
          "internalType": "uint256",
          "name": "attVal",
          "type": "uint256"
        },
        {
          "indexed": false,
          "internalType": "uint256",
          "name": "defLoc",
          "type": "uint256"
        },
        {
          "indexed": false,
          "internalType": "uint256",
          "name": "defVal",
          "type": "uint256"
        }
      ],
      "name": "battleResolved",
      "type": "event"
    },
    {
      "anonymous": false,
      "inputs": [
        {
          "indexed": false,
          "internalType": "uint256",
          "name": "gameID",
          "type": "uint256"
        },
        {
          "indexed": false,
          "internalType": "uint256",
          "name": "oldCoord",
          "type": "uint256"
        },
        {
          "indexed": false,
          "internalType": "uint256",
          "name": "newCoord",
          "type": "uint256"
        },
        {
          "indexed": false,
          "internalType": "string",
          "name": "hashboard",
          "type": "string"
        }
      ],
      "name": "battleSquares",
      "type": "event"
    },
    {
      "anonymous": false,
      "inputs": [
        {
          "indexed": false,
          "internalType": "uint256",
          "name": "gameID",
          "type": "uint256"
        },
        {
          "indexed": false,
          "internalType": "address",
          "name": "red",
          "type": "address"
        },
        {
          "indexed": false,
          "internalType": "address",
          "name": "blue",
          "type": "address"
        }
      ],
      "name": "beginGame",
      "type": "event"
    },
    {
      "anonymous": false,
      "inputs": [
        {
          "indexed": false,
          "internalType": "uint256",
          "name": "gameID",
          "type": "uint256"
        },
        {
          "indexed": false,
          "internalType": "uint256",
          "name": "oldCoord",
          "type": "uint256"
        },
        {
          "indexed": false,
          "internalType": "uint256",
          "name": "newCoord",
          "type": "uint256"
        },
        {
          "indexed": false,
          "internalType": "string",
          "name": "hashboard",
          "type": "string"
        }
      ],
      "name": "makeMove",
      "type": "event"
    },
    {
      "anonymous": false,
      "inputs": [
        {
          "indexed": false,
          "internalType": "uint256",
          "name": "gameID",
          "type": "uint256"
        },
        {
          "indexed": false,
          "internalType": "address",
          "name": "sender",
          "type": "address"
        },
        {
          "indexed": false,
          "internalType": "uint8",
          "name": "pieceVal",
          "type": "uint8"
        }
      ],
      "name": "pieceClaimed",
      "type": "event"
    },
    {
      "anonymous": false,
      "inputs": [
        {
          "indexed": false,
          "internalType": "uint256",
          "name": "gameID",
          "type": "uint256"
        },
        {
          "indexed": false,
          "internalType": "string",
          "name": "redBoard",
          "type": "string"
        },
        {
          "indexed": false,
          "internalType": "string",
          "name": "blueBoard",
          "type": "string"
        }
      ],
      "name": "piecesPlaced",
      "type": "event"
    },
    {
      "anonymous": false,
      "inputs": [
        {
          "indexed": false,
          "internalType": "uint256",
          "name": "gameID",
          "type": "uint256"
        },
        {
          "indexed": false,
          "internalType": "address",
          "name": "sender",
          "type": "address"
        },
        {
          "indexed": false,
          "internalType": "string",
          "name": "data",
          "type": "string"
        }
      ],
      "name": "verifyData",
      "type": "event"
    },
    {
      "inputs": [],
      "name": "DEFAULT_ADMIN_ROLE",
      "outputs": [
        {
          "internalType": "bytes32",
          "name": "",
          "type": "bytes32"
        }
      ],
      "stateMutability": "view",
      "type": "function"
    },
    {
      "inputs": [
        {
          "internalType": "uint256",
          "name": "gameID",
          "type": "uint256"
        },
        {
          "internalType": "uint8",
          "name": "pieceVal",
          "type": "uint8"
        }
      ],
      "name": "battle",
      "outputs": [],
      "stateMutability": "nonpayable",
      "type": "function"
    },
    {
      "inputs": [],
      "name": "createGame",
      "outputs": [
        {
          "internalType": "uint64",
          "name": "",
          "type": "uint64"
        }
      ],
      "stateMutability": "nonpayable",
      "type": "function"
    },
    {
      "inputs": [
        {
          "internalType": "bytes32",
          "name": "role",
          "type": "bytes32"
        }
      ],
      "name": "getRoleAdmin",
      "outputs": [
        {
          "internalType": "bytes32",
          "name": "",
          "type": "bytes32"
        }
      ],
      "stateMutability": "view",
      "type": "function"
    },
    {
      "inputs": [
        {
          "internalType": "bytes32",
          "name": "role",
          "type": "bytes32"
        },
        {
          "internalType": "uint256",
          "name": "index",
          "type": "uint256"
        }
      ],
      "name": "getRoleMember",
      "outputs": [
        {
          "internalType": "address",
          "name": "",
          "type": "address"
        }
      ],
      "stateMutability": "view",
      "type": "function"
    },
    {
      "inputs": [
        {
          "internalType": "bytes32",
          "name": "role",
          "type": "bytes32"
        }
      ],
      "name": "getRoleMemberCount",
      "outputs": [
        {
          "internalType": "uint256",
          "name": "",
          "type": "uint256"
        }
      ],
      "stateMutability": "view",
      "type": "function"
    },
    {
      "inputs": [
        {
          "internalType": "bytes32",
          "name": "role",
          "type": "bytes32"
        },
        {
          "internalType": "address",
          "name": "account",
          "type": "address"
        }
      ],
      "name": "grantRole",
      "outputs": [],
      "stateMutability": "nonpayable",
      "type": "function"
    },
    {
      "inputs": [
        {
          "internalType": "bytes32",
          "name": "role",
          "type": "bytes32"
        },
        {
          "internalType": "address",
          "name": "account",
          "type": "address"
        }
      ],
      "name": "hasRole",
      "outputs": [
        {
          "internalType": "bool",
          "name": "",
          "type": "bool"
        }
      ],
      "stateMutability": "view",
      "type": "function"
    },
    {
      "inputs": [
        {
          "internalType": "uint256",
          "name": "gameID",
          "type": "uint256"
        }
      ],
      "name": "join",
      "outputs": [],
      "stateMutability": "nonpayable",
      "type": "function"
    },
    {
      "inputs": [
        {
          "internalType": "uint256",
          "name": "gameID",
          "type": "uint256"
        },
        {
          "internalType": "uint8",
          "name": "oldCoord",
          "type": "uint8"
        },
        {
          "internalType": "uint8",
          "name": "newCoord",
          "type": "uint8"
        },
        {
          "internalType": "string",
          "name": "hashboard",
          "type": "string"
        }
      ],
      "name": "movePiece",
      "outputs": [],
      "stateMutability": "nonpayable",
      "type": "function"
    },
    {
      "inputs": [
        {
          "internalType": "uint256",
          "name": "gameID",
          "type": "uint256"
        },
        {
          "internalType": "string",
          "name": "board",
          "type": "string"
        }
      ],
      "name": "place",
      "outputs": [],
      "stateMutability": "nonpayable",
      "type": "function"
    },
    {
      "inputs": [
        {
          "internalType": "bytes32",
          "name": "role",
          "type": "bytes32"
        },
        {
          "internalType": "address",
          "name": "account",
          "type": "address"
        }
      ],
      "name": "renounceRole",
      "outputs": [],
      "stateMutability": "nonpayable",
      "type": "function"
    },
    {
      "inputs": [
        {
          "internalType": "bytes32",
          "name": "role",
          "type": "bytes32"
        },
        {
          "internalType": "address",
          "name": "account",
          "type": "address"
        }
      ],
      "name": "revokeRole",
      "outputs": [],
      "stateMutability": "nonpayable",
      "type": "function"
    },
    {
      "inputs": [
        {
          "internalType": "uint256",
          "name": "gameID",
          "type": "uint256"
        },
        {
          "internalType": "string",
          "name": "data",
          "type": "string"
        }
      ],
      "name": "verify",
      "outputs": [],
      "stateMutability": "nonpayable",
      "type": "function"
    }
  ],
  "bytecode": "0x6080604052600180546001600160c01b031916600160801b17905534801561002657600080fd5b506123bb806100366000396000f3fe608060405234801561001057600080fd5b50600436106100ba5760003560e01c8063049878f3146100bf578063229c42ba146100de578063248a9ca31461019c5780632f2ff15d146101cb57806336568abe146101f75780634942f358146102235780637255d729146102ce57806388f56f09146102f25780639010d07c1461031857806391d1485414610357578063a217fddf14610397578063ca15c8731461039f578063cd9e1ed5146103bc578063d547741f14610467575b600080fd5b6100dc600480360360208110156100d557600080fd5b5035610493565b005b6100dc600480360360808110156100f457600080fd5b81359160ff602082013581169260408301359091169190810190608081016060820135600160201b81111561012857600080fd5b82018360208201111561013a57600080fd5b803590602001918460018302840111600160201b8311171561015b57600080fd5b91908080601f0160208091040260200160405190810160405280939291908181526020018383808284376000920191909152509295506106f6945050505050565b6101b9600480360360208110156101b257600080fd5b5035610d47565b60408051918252519081900360200190f35b6100dc600480360360408110156101e157600080fd5b50803590602001356001600160a01b0316610d5c565b6100dc6004803603604081101561020d57600080fd5b50803590602001356001600160a01b0316610dc8565b6100dc6004803603604081101561023957600080fd5b81359190810190604081016020820135600160201b81111561025a57600080fd5b82018360208201111561026c57600080fd5b803590602001918460018302840111600160201b8311171561028d57600080fd5b91908080601f016020809104026020016040519081016040528093929190818152602001838380828437600092019190915250929550610e29945050505050565b6102d6610fc3565b604080516001600160401b039092168252519081900360200190f35b6100dc6004803603604081101561030857600080fd5b508035906020013560ff16611183565b61033b6004803603604081101561032e57600080fd5b5080359060200135611868565b604080516001600160a01b039092168252519081900360200190f35b6103836004803603604081101561036d57600080fd5b50803590602001356001600160a01b0316611889565b604080519115158252519081900360200190f35b6101b96118a1565b6101b9600480360360208110156103b557600080fd5b50356118a6565b6100dc600480360360408110156103d257600080fd5b81359190810190604081016020820135600160201b8111156103f357600080fd5b82018360208201111561040557600080fd5b803590602001918460018302840111600160201b8311171561042657600080fd5b91908080601f0160208091040260200160405190810160405280939291908181526020018383808284376000920191909152509295506118bd945050505050565b6100dc6004803603604081101561047d57600080fd5b50803590602001356001600160a01b0316611c6c565b600081815260026020526040812060090154829190600160201b900460ff166104f8576040805162461bcd60e51b815260206004820152601260248201527119d85b5948191bd95cdb89dd08195e1a5cdd60721b604482015290519081900360640190fd5b80600481111561050457fe5b600083815260026020526040902060010154600160a01b900460ff16600481111561052b57fe5b14610573576040805162461bcd60e51b815260206004820152601360248201527267616d6520696e2077726f6e6720706861736560681b604482015290519081900360640190fd5b600083815260026020526040902080546001600160a01b03163314156105d9576040805162461bcd60e51b8152602060048201526016602482015275706c6179657220616c726561647920696e2067616d6560501b604482015290519081900360640190fd5b600180820180546001600160a01b031916331780825560ff60a01b1916600160a01b83021790555060408051602081019182905260009081905261062191600884019161216d565b5061062d600033610dba565b61063b81600a015433610dba565b600a810154815461065591906001600160a01b0316610d5c565b600180546001600160401b03600160401b808304821684019091160267ffffffffffffffff60401b1990911617905561068d84611cc5565b61069d90600283019060646121eb565b5080546001820154604080518781526001600160a01b039384166020820152919092168183015290517f9b3fd75d96128b0e4cb53c0b93d3b38a429bae4c56a53876ad59bb7c12db20619181900360600190a150505050565b600084815260026020819052604090912060090154859190600160201b900460ff1661075e576040805162461bcd60e51b815260206004820152601260248201527119d85b5948191bd95cdb89dd08195e1a5cdd60721b604482015290519081900360640190fd5b80600481111561076a57fe5b600083815260026020526040902060010154600160a01b900460ff16600481111561079157fe5b146107d9576040805162461bcd60e51b815260206004820152601360248201527267616d6520696e2077726f6e6720706861736560681b604482015290519081900360640190fd5b6000868152600260205260409020606460ff87161080156107fd575060648560ff16105b610844576040805162461bcd60e51b8152602060048201526013602482015272636f6f726473206e6f7420696e2072616e676560681b604482015290519081900360640190fd5b61085281600a015433611889565b61085b57600080fd5b600181015460009081906001600160a01b031633141561087c575060019050805b8260090160059054906101000a900460ff161515821515146108d5576040805162461bcd60e51b815260206004820152600d60248201526c3737ba103cb7bab9103a3ab93760991b604482015290519081900360640190fd5b6000836002018960ff16606481106108e957fe5b602091828204019190069054906101000a900460ff1690506000846002018960ff166064811061091557fe5b602081049091015460ff601f9092166101000a900416905082600381111561093957fe5b82600381111561094557fe5b14610990576040805162461bcd60e51b815260206004820152601660248201527563616e6e6f74206d6f7665207468617420706965636560501b604482015290519081900360640190fd5b82600381111561099c57fe5b8160038111156109a857fe5b141580156109c2575060038160038111156109bf57fe5b14155b610a07576040805162461bcd60e51b815260206004820152601160248201527063616e6e6f74206d6f766520746865726560781b604482015290519081900360640190fd5b6000610a2c600a60ff8d160460ff16600a8c60ff1681610a2357fe5b0460ff16611e9a565b90506000610a53600a60ff8e160660ff16600a8d60ff1681610a4a57fe5b0660ff16611e9a565b905081158015610a635750806001145b80610a775750816001148015610a77575080155b610abe576040805162461bcd60e51b815260206004820152601360248201527263616e6e6f74206a756d70207371756172657360681b604482015290519081900360640190fd5b6002836003811115610acc57fe5b1415610c26576002876002018d60ff1660648110610ae657fe5b602091828204019190066101000a81548160ff02191690836003811115610b0957fe5b021790555084876002018c60ff1660648110610b2157fe5b602091828204019190066101000a81548160ff02191690836003811115610b4457fe5b021790555085158760090160056101000a81548160ff0219169083151502179055507facbf0a81a88beba603d4d8db86203fcf345e41f6a0966f8c5071c7fa24453f6e87600601548d8d8d604051808581526020018460ff1681526020018360ff16815260200180602001828103825283818151815260200191508051906020019080838360005b83811015610be4578181015183820152602001610bcc565b50505050905090810190601f168015610c115780820380516001836020036101000a031916815260200191505b509550505050505060405180910390a1610d38565b6001870180546003919060ff60a01b1916600160a01b8302179055508b8760090160026101000a81548160ff021916908360ff1602179055508a8760090160036101000a81548160ff021916908360ff1602179055507fb89cc9fefb59114a15f3133e1f4b6b5a8bce27bd7300134041a32c6d585a4d2887600601548d8d8d604051808581526020018460ff1681526020018360ff16815260200180602001828103825283818151815260200191508051906020019080838360005b83811015610cfa578181015183820152602001610ce2565b50505050905090810190601f168015610d275780820380516001836020036101000a031916815260200191505b509550505050505060405180910390a15b50505050505050505050505050565b60009081526020819052604090206002015490565b600082815260208190526040902060020154610d7f90610d7a611eb1565b611889565b610dba5760405162461bcd60e51b815260040180806020018281038252602f8152602001806122d8602f913960400191505060405180910390fd5b610dc48282611eb5565b5050565b610dd0611eb1565b6001600160a01b0316816001600160a01b031614610e1f5760405162461bcd60e51b815260040180806020018281038252602f815260200180612357602f913960400191505060405180910390fd5b610dc48282611f1e565b6000828152600260205260409020600901548290600490600160201b900460ff16610e90576040805162461bcd60e51b815260206004820152601260248201527119d85b5948191bd95cdb89dd08195e1a5cdd60721b604482015290519081900360640190fd5b806004811115610e9c57fe5b600083815260026020526040902060010154600160a01b900460ff166004811115610ec357fe5b14610f0b576040805162461bcd60e51b815260206004820152601360248201527267616d6520696e2077726f6e6720706861736560681b604482015290519081900360640190fd5b7f227935147e9594efd110a191a4afe37f49ba4383e1a17086f3a48c7aaaf3d3a984338560405180848152602001836001600160a01b0316815260200180602001828103825283818151815260200191508051906020019080838360005b83811015610f81578181015183820152602001610f69565b50505050905090810190601f168015610fae5780820380516001836020036101000a031916815260200191505b5094505050505060405180910390a150505050565b600154600090620f422f600160801b9091046001600160401b0390811660450216065b6001600160401b038116600090815260026020526040902060090154600160201b900460ff161561102a57620f422f600182016001600160401b0316069050610fe6565b600180546001600160401b038316600160801b810267ffffffffffffffff60801b1990921691909117909155600081815260026020908152604080832081518084019590955281518086038401815285830180845281519190940120600a82015580546001600160a01b0319163317815560098101805465ffff000000001916600160201b179055606090940190819052908290526110ce9160078401919061216d565b506001600160401b038216600682015560098101805462ff00001916626500001763ff000000191663650000001761ffff191690556001810180546000919060ff60a01b1916600160a01b8302179055506001805467ffffffffffffffff1981166001600160401b03918216830182161790915560408051338152918416602083015280517f0b00eaed7a0d55952ef3dd90aadf03196cf0a192aec8f034c574b5bf7ab4f0ea9281900390910190a150905090565b6000828152600260205260409020600901548290600390600160201b900460ff166111ea576040805162461bcd60e51b815260206004820152601260248201527119d85b5948191bd95cdb89dd08195e1a5cdd60721b604482015290519081900360640190fd5b8060048111156111f657fe5b600083815260026020526040902060010154600160a01b900460ff16600481111561121d57fe5b14611265576040805162461bcd60e51b815260206004820152601360248201527267616d6520696e2077726f6e6720706861736560681b604482015290519081900360640190fd5b6000848152600260205260409020600c60ff8516106112c1576040805162461bcd60e51b8152602060048201526013602482015272696e76616c69642070696563652076616c756560681b604482015290519081900360640190fd5b6112cf81600a015433611889565b6112d857600080fd5b805460098201546001600160a01b0390911633141590600160281b900460ff1615158114156113bb57600982015460ff1615611354576040805162461bcd60e51b8152602060048201526016602482015275616c726561647920726563656976656420706965636560501b604482015290519081900360640190fd5b600a8560ff16106113a5576040805162461bcd60e51b815260206004820152601660248201527563616e6e6f74206d6f7665207468617420706965636560501b604482015290519081900360640190fd5b60098201805460ff191660ff871617905561142a565b6009820154610100900460ff1615611413576040805162461bcd60e51b8152602060048201526016602482015275616c726561647920726563656976656420706965636560501b604482015290519081900360640190fd5b60098201805461ff00191661010060ff8816021790555b6040805187815233602082015260ff87168183015290517f83b698126cc9cf6a49dbdf9eb0aa4549909f0e592ad1ec516cbd6ea6e4fb485b9181900360600190a1600982015460ff161580159061148c57506009820154610100900460ff1615155b1561185f5760098201546002908184019062010000900460ff16606481106114b057fe5b602091828204019190066101000a81548160ff021916908360038111156114d357fe5b02179055506009820154610100900460ff16600b14156115585760018201805460ff60a01b1916600160a21b1790556006820154600983015460408051928352600160281b90910460ff161515602083015280517f49a64b98cd43c48f1e0338cc32f2712938f1df5c0287875d17aff532e0e502c69281900390910190a15050611862565b6009820154610100810460ff90811691161415611613576009820154600290818401906301000000900460ff166064811061158f57fe5b602091828204019190066101000a81548160ff021916908360038111156115b257fe5b0217905550600682015460098301546040805192835260ff62010000830481166020850152600084830181905263010000009093041660608401526080830191909152516000805160206123378339815191529181900360a00190a1611809565b6009820154600090610100900460ff16600a14801561163a5750600983015460ff16600814155b1561165557506009820154600160281b900460ff16156116cf565b60098084015460ff161480156116785750600983015460ff610100909104166001145b1561169257506009820154600160281b900460ff166116cf565b600983015460ff610100820481169116106116bc576009830154600160281b900460ff16156116cc565b6009830154600160281b900460ff165b90505b8260090160059054906101000a900460ff16151581151514156117ab576009830154600160281b900460ff16611706576000611709565b60015b600984015460028501906301000000900460ff166064811061172757fe5b602091828204019190066101000a81548160ff0219169083600381111561174a57fe5b0217905550600683015460098401546040805192835260ff63010000008304811660208501528083168483015262010000909204909116606083015260006080830152516000805160206123378339815191529181900360a00190a1611807565b600683015460098401546040805192835260ff6201000083048116602085015260008483015263010000008304811660608501526101009092049091166080830152516000805160206123378339815191529181900360a00190a15b505b60098201805460ff60281b198116600160281b9182900460ff16159091021762ffffff1916626500001763ff000000191663650000001790556001820180546002919060ff60a01b1916600160a01b8302179055505b50505b50505050565b60008281526020819052604081206118809083611f87565b90505b92915050565b60008281526020819052604081206118809083611f93565b600081565b600081815260208190526040812061188390611fa8565b6000828152600260205260409020600901548290600190600160201b900460ff16611924576040805162461bcd60e51b815260206004820152601260248201527119d85b5948191bd95cdb89dd08195e1a5cdd60721b604482015290519081900360640190fd5b80600481111561193057fe5b600083815260026020526040902060010154600160a01b900460ff16600481111561195757fe5b1461199f576040805162461bcd60e51b815260206004820152601360248201527267616d6520696e2077726f6e6720706861736560681b604482015290519081900360640190fd5b6000848152600260205260409020600a8101546119bc9033611889565b6119c557600080fd5b80546001600160a01b0316331415611a555760078101546002600019610100600184161502019091160415611a3a576040805162461bcd60e51b8152602060048201526016602482015275149959081c1a5958d95cc8185b1c9958591e481cd95d60521b604482015290519081900360640190fd5b8351611a4f906007830190602087019061216d565b50611ad0565b60088101546002600019610100600184161502019091160415611ab9576040805162461bcd60e51b8152602060048201526017602482015276109b1d59481c1a5958d95cc8185b1c9958591e481cd95d604a1b604482015290519081900360640190fd5b8351611ace906008830190602087019061216d565b505b60078101546002600019610100600184161502019091160415801590611b0c575060088101546002600019610100600184161502019091160415155b15611c65576001810180546002919060ff60a01b1916600160a01b83021790555060408051868152606060208201818152600785018054600260001961010060018416150201909116049284018390527fc038180dcff8c580884c142f159f5882be11c01eb0a64e5cf2a950e37998eda6948a949193600888019391830190608084019086908015611bdf5780601f10611bb457610100808354040283529160200191611bdf565b820191906000526020600020905b815481529060010190602001808311611bc257829003601f168201915b5050838103825284546002600019610100600184161502019091160480825260209091019085908015611c535780601f10611c2857610100808354040283529160200191611c53565b820191906000526020600020905b815481529060010190602001808311611c3657829003601f168201915b50509550505050505060405180910390a15b5050505050565b600082815260208190526040902060020154611c8a90610d7a611eb1565b610e1f5760405162461bcd60e51b81526004018080602001828103825260308152602001806123076030913960400191505060405180910390fd5b611ccd612281565b6000828152600260205260408120905b60288161ffff161015611d72576000826002018261ffff1660648110611cff57fe5b602091828204019190066101000a81548160ff02191690836003811115611d2257fe5b02179055506001826002016001836064030361ffff1660648110611d4257fe5b602091828204019190066101000a81548160ff02191690836003811115611d6557fe5b0217905550600101611cdd565b5060285b603c8161ffff161015611dc8576002826002018261ffff1660648110611d9857fe5b602091828204019190066101000a81548160ff02191690836003811115611dbb57fe5b0217905550600101611d76565b5060038101805460ff60501b1916600360501b1760ff60581b1916600360581b1760ff60a01b1916600360a01b1760ff60a81b1916600360a81b1760ff60701b1916600360701b1760ff60781b1916600360781b1760ff60c01b1916600360c01b1760ff60c81b1916600360c81b17905560408051610c80810191829052906002830190606490826000855b82829054906101000a900460ff166003811115611e6d57fe5b815260206001928301818104948501949093039092029101808411611e5457509498975050505050505050565b6000818311611eab57828203611880565b50900390565b3390565b6000828152602081905260409020611ecd9082611fb3565b15610dc457611eda611eb1565b6001600160a01b0316816001600160a01b0316837f2f8788117e7eff1d82e926ec794901d17c78024a50270940304540a733656f0d60405160405180910390a45050565b6000828152602081905260409020611f369082611fc8565b15610dc457611f43611eb1565b6001600160a01b0316816001600160a01b0316837ff6391f5c32d9c69d2a47ea670b442974b53935d1edc7fd64eb21e047a839171b60405160405180910390a45050565b60006118808383611fdd565b6000611880836001600160a01b038416612041565b600061188382612059565b6000611880836001600160a01b03841661205d565b6000611880836001600160a01b0384166120a7565b8154600090821061201f5760405162461bcd60e51b81526004018080602001828103825260228152602001806122b66022913960400191505060405180910390fd5b82600001828154811061202e57fe5b9060005260206000200154905092915050565b60009081526001919091016020526040902054151590565b5490565b60006120698383612041565b61209f57508154600181810184556000848152602080822090930184905584548482528286019093526040902091909155611883565b506000611883565b6000818152600183016020526040812054801561216357835460001980830191908101906000908790839081106120da57fe5b90600052602060002001549050808760000184815481106120f757fe5b60009182526020808320909101929092558281526001898101909252604090209084019055865487908061212757fe5b60019003818190600052602060002001600090559055866001016000878152602001908152602001600020600090556001945050505050611883565b6000915050611883565b828054600181600116156101000203166002900490600052602060002090601f016020900481019282601f106121ae57805160ff19168380011785556121db565b828001600101855582156121db579182015b828111156121db5782518255916020019190600101906121c0565b506121e79291506122a0565b5090565b6004830191839082156121db5791602002820160005b8382111561224757835183826101000a81548160ff0219169083600381111561222657fe5b02179055509260200192600101602081600001049283019260010302612201565b80156122745782816101000a81549060ff0219169055600101602081600001049283019260010302612247565b50506121e79291506122a0565b60405180610c8001604052806064906020820280368337509192915050565b5b808211156121e757600081556001016122a156fe456e756d657261626c655365743a20696e646578206f7574206f6620626f756e6473416363657373436f6e74726f6c3a2073656e646572206d75737420626520616e2061646d696e20746f206772616e74416363657373436f6e74726f6c3a2073656e646572206d75737420626520616e2061646d696e20746f207265766f6b6503605e838b39d1a4dcb959de940bb3824ad314aea2a6a9b8530cf0e01c1a21ff416363657373436f6e74726f6c3a2063616e206f6e6c792072656e6f756e636520726f6c657320666f722073656c66a2646970667358221220d87e308bdd51c752818fe7becdc8e7e546730db0a98ec4973f2a4cc525d10c1164736f6c63430007030033",
  "linkReferences": {},
  "deployedLinkReferences": {}
}