{
  "_format": "hh-sol-artifact-1",
  "contractName": "Stratego",
  "sourceName": "contracts/Stratego.sol",
  "abi": [
    {
      "anonymous": false,
      "inputs": [
        {
          "indexed": false,
          "internalType": "address",
          "name": "from",
          "type": "address"
        },
        {
          "indexed": false,
          "internalType": "uint256",
          "name": "gameID",
          "type": "uint256"
        }
      ],
      "name": "GameIDs",
      "type": "event"
    },
    {
      "anonymous": false,
      "inputs": [
        {
          "indexed": false,
          "internalType": "enum Stratego.TileType[100]",
          "name": "board",
          "type": "uint8[100]"
        }
      ],
      "name": "boardState",
      "type": "event"
    },
    {
      "anonymous": false,
      "inputs": [
        {
          "indexed": false,
          "internalType": "string",
          "name": "boardString",
          "type": "string"
        }
      ],
      "name": "logBoard",
      "type": "event"
    },
    {
      "inputs": [
        {
          "internalType": "uint256",
          "name": "newX",
          "type": "uint256"
        },
        {
          "internalType": "uint256",
          "name": "newY",
          "type": "uint256"
        }
      ],
      "name": "battle",
      "outputs": [],
      "stateMutability": "nonpayable",
      "type": "function"
    },
    {
      "inputs": [
        {
          "internalType": "uint256",
          "name": "x",
          "type": "uint256"
        },
        {
          "internalType": "uint256",
          "name": "y",
          "type": "uint256"
        }
      ],
      "name": "coord2Idx",
      "outputs": [
        {
          "internalType": "uint256",
          "name": "",
          "type": "uint256"
        }
      ],
      "stateMutability": "pure",
      "type": "function"
    },
    {
      "inputs": [
        {
          "internalType": "uint256",
          "name": "x",
          "type": "uint256"
        },
        {
          "internalType": "uint256",
          "name": "y",
          "type": "uint256"
        },
        {
          "internalType": "uint256",
          "name": "gameID",
          "type": "uint256"
        }
      ],
      "name": "coord2Piece",
      "outputs": [
        {
          "internalType": "enum Stratego.TileType",
          "name": "",
          "type": "uint8"
        }
      ],
      "stateMutability": "view",
      "type": "function"
    },
    {
      "inputs": [
        {
          "internalType": "uint256",
          "name": "gameID",
          "type": "uint256"
        }
      ],
      "name": "createBoard",
      "outputs": [
        {
          "internalType": "enum Stratego.TileType[100]",
          "name": "",
          "type": "uint8[100]"
        }
      ],
      "stateMutability": "nonpayable",
      "type": "function"
    },
    {
      "inputs": [],
      "name": "createGame",
      "outputs": [],
      "stateMutability": "nonpayable",
      "type": "function"
    },
    {
      "inputs": [
        {
          "internalType": "uint256",
          "name": "gameID",
          "type": "uint256"
        }
      ],
      "name": "join",
      "outputs": [],
      "stateMutability": "nonpayable",
      "type": "function"
    },
    {
      "inputs": [
        {
          "internalType": "uint256",
          "name": "origX",
          "type": "uint256"
        },
        {
          "internalType": "uint256",
          "name": "origY",
          "type": "uint256"
        },
        {
          "internalType": "uint256",
          "name": "newX",
          "type": "uint256"
        },
        {
          "internalType": "uint256",
          "name": "newY",
          "type": "uint256"
        },
        {
          "internalType": "uint256",
          "name": "gameID",
          "type": "uint256"
        }
      ],
      "name": "movePiece",
      "outputs": [],
      "stateMutability": "nonpayable",
      "type": "function"
    },
    {
      "inputs": [
        {
          "internalType": "enum Stratego.TileType",
          "name": "piece",
          "type": "uint8"
        }
      ],
      "name": "piece2Str",
      "outputs": [
        {
          "internalType": "string",
          "name": "",
          "type": "string"
        }
      ],
      "stateMutability": "pure",
      "type": "function"
    },
    {
      "inputs": [
        {
          "internalType": "uint256",
          "name": "gameID",
          "type": "uint256"
        }
      ],
      "name": "printBoard",
      "outputs": [
        {
          "internalType": "string",
          "name": "",
          "type": "string"
        }
      ],
      "stateMutability": "view",
      "type": "function"
    }
  ],
  "bytecode": "0x608060405260008060006101000a81548167ffffffffffffffff021916908367ffffffffffffffff16021790555060008060086101000a81548167ffffffffffffffff021916908367ffffffffffffffff1602179055506001600060106101000a81548167ffffffffffffffff021916908367ffffffffffffffff16021790555034801561008c57600080fd5b506116d48061009c6000396000f3fe608060405234801561001057600080fd5b50600436106100935760003560e01c80635c7f00c3116100665780635c7f00c3146101b45780635fa40e881461025e5780637255d729146102bf5780637a45a65a146102c9578063ec12e3cd1461031f57610093565b8063049878f314610098578063110410f7146100c65780632a0c5221146101305780633650d87814610168575b600080fd5b6100c4600480360360208110156100ae57600080fd5b81019080803590602001909291905050506103c6565b005b6100f2600480360360208110156100dc57600080fd5b8101908080359060200190929190505050610558565b6040518082606460200280838360005b8381101561011d578082015181840152602081019050610102565b5050505090500191505060405180910390f35b6101666004803603604081101561014657600080fd5b810190808035906020019092919080359060200190929190505050610942565b005b61019e6004803603604081101561017e57600080fd5b810190808035906020019092919080359060200190929190505050610946565b6040518082815260200191505060405180910390f35b6101e3600480360360208110156101ca57600080fd5b81019080803560ff169060200190929190505050610956565b6040518080602001828103825283818151815260200191508051906020019080838360005b83811015610223578082015181840152602081019050610208565b50505050905090810190601f1680156102505780820380516001836020036101000a031916815260200191505b509250505060405180910390f35b61029e6004803603606081101561027457600080fd5b81019080803590602001909291908035906020019092919080359060200190929190505050610aa9565b604051808260038111156102ae57fe5b815260200191505060405180910390f35b6102c7610af9565b005b61031d600480360360a08110156102df57600080fd5b810190808035906020019092919080359060200190929190803590602001909291908035906020019092919080359060200190929190505050610d59565b005b61034b6004803603602081101561033557600080fd5b810190808035906020019092919050505061116d565b6040518080602001828103825283818151815260200191508051906020019080838360005b8381101561038b578082015181840152602081019050610370565b50505050905090810190601f1680156103b85780820380516001836020036101000a031916815260200191505b509250505060405180910390f35b60006001600083815260200190815260200160002090508060060160019054906101000a900460ff16801561042257506000600481111561040357fe5b8160010160149054906101000a900460ff16600481111561042057fe5b145b61042b57600080fd5b3373ffffffffffffffffffffffffffffffffffffffff168160000160009054906101000a900473ffffffffffffffffffffffffffffffffffffffff1673ffffffffffffffffffffffffffffffffffffffff16141561048857600080fd5b338160010160006101000a81548173ffffffffffffffffffffffffffffffffffffffff021916908373ffffffffffffffffffffffffffffffffffffffff16021790555060018160010160146101000a81548160ff021916908360048111156104ec57fe5b02179055506000600881819054906101000a900467ffffffffffffffff168092919060010191906101000a81548167ffffffffffffffff021916908367ffffffffffffffff1602179055505061054182610558565b816002019060646105539291906115bc565b505050565b61056061165e565b600060016000848152602001908152602001600020905060005b60288161ffff161015610614576000826002018261ffff166064811061059c57fe5b602091828204019190066101000a81548160ff021916908360038111156105bf57fe5b02179055506001826002016001836064030361ffff16606481106105df57fe5b602091828204019190066101000a81548160ff0219169083600381111561060257fe5b0217905550808060010191505061057a565b506000602890505b603c8161ffff161015610673576002826002018261ffff166064811061063e57fe5b602091828204019190066101000a81548160ff0219169083600381111561066157fe5b0217905550808060010191505061061c565b50600381600201602a6064811061068657fe5b602091828204019190066101000a81548160ff021916908360038111156106a957fe5b0217905550600381600201602b606481106106c057fe5b602091828204019190066101000a81548160ff021916908360038111156106e357fe5b02179055506003816002016034606481106106fa57fe5b602091828204019190066101000a81548160ff0219169083600381111561071d57fe5b021790555060038160020160356064811061073457fe5b602091828204019190066101000a81548160ff0219169083600381111561075757fe5b0217905550600381600201602e6064811061076e57fe5b602091828204019190066101000a81548160ff0219169083600381111561079157fe5b0217905550600381600201602f606481106107a857fe5b602091828204019190066101000a81548160ff021916908360038111156107cb57fe5b02179055506003816002016038606481106107e257fe5b602091828204019190066101000a81548160ff0219169083600381111561080557fe5b021790555060038160020160396064811061081c57fe5b602091828204019190066101000a81548160ff0219169083600381111561083f57fe5b02179055507fd1d008412961235d619ca73afedbc7f1e9b60477c6d08c8e99fc1905adf0643a816002016040518082606480156108bf576020028201916000905b82829054906101000a900460ff16600381111561089957fe5b815260200190600101906020826000010492830192600103820291508084116108805790505b505091505060405180910390a180600201606480602002604051908101604052809291908260648015610935576020028201916000905b82829054906101000a900460ff16600381111561090f57fe5b815260200190600101906020826000010492830192600103820291508084116108f65790505b5050505050915050919050565b5050565b60008183600a0201905092915050565b60606002600381111561096557fe5b82600381111561097157fe5b14156109b4576040518060400160405280600181526020017f45000000000000000000000000000000000000000000000000000000000000008152509050610aa4565b6003808111156109c057fe5b8260038111156109cc57fe5b1415610a0f576040518060400160405280600181526020017f58000000000000000000000000000000000000000000000000000000000000008152509050610aa4565b60006003811115610a1c57fe5b826003811115610a2857fe5b1415610a6b576040518060400160405280600181526020017f52000000000000000000000000000000000000000000000000000000000000008152509050610aa4565b6040518060400160405280600181526020017f420000000000000000000000000000000000000000000000000000000000000081525090505b919050565b60008060016000848152602001908152602001600020905080600201610acf8686610946565b60648110610ad957fe5b602091828204019190069054906101000a900460ff169150509392505050565b6000620f422f67ffffffffffffffff166045600060109054906101000a900467ffffffffffffffff160267ffffffffffffffff1681610b3457fe5b0690505b600160008267ffffffffffffffff16815260200190815260200160002060060160019054906101000a900460ff1615610b9657620f422f67ffffffffffffffff166001820167ffffffffffffffff1681610b8e57fe5b069050610b38565b80600060106101000a81548167ffffffffffffffff021916908367ffffffffffffffff1602179055506000600160008367ffffffffffffffff1681526020019081526020016000209050338160000160006101000a81548173ffffffffffffffffffffffffffffffffffffffff021916908373ffffffffffffffffffffffffffffffffffffffff16021790555060008160060160006101000a81548160ff02191690836001811115610c4457fe5b021790555060018160060160016101000a81548160ff02191690831515021790555060008081819054906101000a900467ffffffffffffffff168092919060010191906101000a81548167ffffffffffffffff021916908367ffffffffffffffff16021790555050610cf66040518060400160405280601a81526020017f416464726573732c2047616d654944206973202573202c202573000000000000815250338467ffffffffffffffff16611450565b7f0b00eaed7a0d55952ef3dd90aadf03196cf0a192aec8f034c574b5bf7ab4f0ea3383604051808373ffffffffffffffffffffffffffffffffffffffff1681526020018267ffffffffffffffff1681526020019250505060405180910390a15050565b6000600160008381526020019081526020016000209050600081600201610d808888610946565b60648110610d8a57fe5b602091828204019190069054906101000a900460ff169050600082600201610db28787610946565b60648110610dbc57fe5b602091828204019190069054906101000a900460ff1690506000610de08988611576565b90506000610dee8988611576565b9050600082148015610e005750600181145b80610e175750600182148015610e165750600081145b5b610e2057600080fd5b60006001811115610e2d57fe5b8560060160009054906101000a900460ff166001811115610e4a57fe5b1415610fdd578460000160009054906101000a900473ffffffffffffffffffffffffffffffffffffffff1673ffffffffffffffffffffffffffffffffffffffff163373ffffffffffffffffffffffffffffffffffffffff16148015610ec5575060006003811115610eb757fe5b846003811115610ec357fe5b145b610ece57600080fd5b60016003811115610edb57fe5b836003811115610ee757fe5b1480610f09575060026003811115610efb57fe5b836003811115610f0757fe5b145b610f1257600080fd5b60016003811115610f1f57fe5b836003811115610f2b57fe5b1415610f6b57610f3b8888610942565b60018560060160006101000a81548160ff02191690836001811115610f5c57fe5b02179055505050505050611166565b600085600201610f7b8a8a610946565b60648110610f8557fe5b602091828204019190066101000a81548160ff02191690836003811115610fa857fe5b021790555060018560060160006101000a81548160ff02191690836001811115610fce57fe5b02179055505050505050611166565b8460010160009054906101000a900473ffffffffffffffffffffffffffffffffffffffff1673ffffffffffffffffffffffffffffffffffffffff163373ffffffffffffffffffffffffffffffffffffffff1614801561105257506001600381111561104457fe5b84600381111561105057fe5b145b61105b57600080fd5b6000600381111561106857fe5b83600381111561107457fe5b148061109657506002600381111561108857fe5b83600381111561109457fe5b145b61109f57600080fd5b600060038111156110ac57fe5b8360038111156110b857fe5b14156110f8576110c88888610942565b60008560060160006101000a81548160ff021916908360018111156110e957fe5b02179055505050505050611166565b6001856002016111088a8a610946565b6064811061111257fe5b602091828204019190066101000a81548160ff0219169083600381111561113557fe5b021790555060008560060160006101000a81548160ff0219169083600181111561115b57fe5b021790555050505050505b5050505050565b606060006001600084815260200190815260200160002090506060606461ffff1667ffffffffffffffff811180156111a457600080fd5b506040519080825280601f01601f1916602001820160405280156111d75781602001600182028036833780820191505090505b509050606081905060005b606461ffff16811015611444576003808111156111fb57fe5b84600201826064811061120a57fe5b602091828204019190069054906101000a900460ff16600381111561122b57fe5b1415611292577f580000000000000000000000000000000000000000000000000000000000000082828151811061125e57fe5b60200101907effffffffffffffffffffffffffffffffffffffffffffffffffffffffffffff1916908160001a905350611437565b6000600381111561129f57fe5b8460020182606481106112ae57fe5b602091828204019190069054906101000a900460ff1660038111156112cf57fe5b1415611336577f520000000000000000000000000000000000000000000000000000000000000082828151811061130257fe5b60200101907effffffffffffffffffffffffffffffffffffffffffffffffffffffffffffff1916908160001a905350611437565b6001600381111561134357fe5b84600201826064811061135257fe5b602091828204019190069054906101000a900460ff16600381111561137357fe5b14156113da577f42000000000000000000000000000000000000000000000000000000000000008282815181106113a657fe5b60200101907effffffffffffffffffffffffffffffffffffffffffffffffffffffffffffff1916908160001a905350611437565b7f450000000000000000000000000000000000000000000000000000000000000082828151811061140757fe5b60200101907effffffffffffffffffffffffffffffffffffffffffffffffffffffffffffff1916908160001a9053505b80806001019150506111e2565b50809350505050919050565b61157183838360405160240180806020018473ffffffffffffffffffffffffffffffffffffffff168152602001838152602001828103825285818151815260200191508051906020019080838360005b838110156114bb5780820151818401526020810190506114a0565b50505050905090810190601f1680156114e85780820380516001836020036101000a031916815260200191505b509450505050506040516020818303038152906040527f07c81217000000000000000000000000000000000000000000000000000000007bffffffffffffffffffffffffffffffffffffffffffffffffffffffff19166020820180517bffffffffffffffffffffffffffffffffffffffffffffffffffffffff8381831617835250505050611593565b505050565b60008183116115875782820361158b565b8183035b905092915050565b60008151905060006a636f6e736f6c652e6c6f679050602083016000808483855afa5050505050565b826064601f0160209004810192821561164d5791602002820160005b8382111561161e57835183826101000a81548160ff021916908360038111156115fd57fe5b021790555092602001926001016020816000010492830192600103026115d8565b801561164b5782816101000a81549060ff021916905560010160208160000104928301926001030261161e565b505b50905061165a9190611681565b5090565b60405180610c800160405280606490602082028036833780820191505090505090565b5b8082111561169a576000816000905550600101611682565b509056fea2646970667358221220bd644561de431f42f1fc43451e02e3e97fa892285e6fb3095feb740b6164b66d64736f6c63430007030033",
  "linkReferences": {},
  "deployedLinkReferences": {}
}