{
  "contractName": "Deck",
  "abi": [
    {
      "inputs": [],
      "payable": false,
      "stateMutability": "nonpayable",
      "type": "constructor"
    },
    {
      "anonymous": false,
      "inputs": [
        {
          "indexed": false,
          "internalType": "uint8[10]",
          "name": "deck",
          "type": "uint8[10]"
        }
      ],
      "name": "printDeck",
      "type": "event"
    },
    {
      "constant": true,
      "inputs": [
        {
          "internalType": "uint256",
          "name": "",
          "type": "uint256"
        }
      ],
      "name": "deck",
      "outputs": [
        {
          "internalType": "uint8",
          "name": "",
          "type": "uint8"
        }
      ],
      "payable": false,
      "stateMutability": "view",
      "type": "function"
    },
    {
      "constant": false,
      "inputs": [],
      "name": "reset",
      "outputs": [
        {
          "internalType": "uint8[10]",
          "name": "",
          "type": "uint8[10]"
        }
      ],
      "payable": false,
      "stateMutability": "nonpayable",
      "type": "function"
    },
    {
      "constant": false,
      "inputs": [],
      "name": "shuffle",
      "outputs": [],
      "payable": false,
      "stateMutability": "nonpayable",
      "type": "function"
    },
    {
      "constant": false,
      "inputs": [],
      "name": "print",
      "outputs": [
        {
          "internalType": "uint8[10]",
          "name": "",
          "type": "uint8[10]"
        }
      ],
      "payable": false,
      "stateMutability": "nonpayable",
      "type": "function"
    }
  ],
  "bytecode": "0x608060405234801561001057600080fd5b5061001f61002560201b60201c565b50610228565b61002d610205565b60008090505b600a8160ff16101561007d578060008260ff16600a811061005057fe5b602091828204019190066101000a81548160ff021916908360ff1602179055508080600101915050610033565b5061008c6100f660201b60201c565b506000600a806020026040519081016040528092919082600a80156100ec576020028201916000905b82829054906101000a900460ff1660ff16815260200190600101906020826000010492830192600103820291508084116100b55790505b5050505050905090565b6100fe610205565b60008090505b600a8160ff16101561011d578080600101915050610104565b507f281af5129a9b34d6bab3ede59a3e274e5c5e2aa56d24ca7077dd2071d6ddfff060006040518082600a801561018f576020028201916000905b82829054906101000a900460ff1660ff16815260200190600101906020826000010492830192600103820291508084116101585790505b505091505060405180910390a16000600a806020026040519081016040528092919082600a80156101fb576020028201916000905b82829054906101000a900460ff1660ff16815260200190600101906020826000010492830192600103820291508084116101c45790505b5050505050905090565b604051806101400160405280600a90602082028038833980820191505090505090565b610499806102376000396000f3fe608060405234801561001057600080fd5b506004361061004c5760003560e01c806313bdfacd146100515780632520bf041461009757806365b1dafa146100a1578063d826f88f146100e9575b600080fd5b61005961012f565b6040518082600a60200280838360005b83811015610084578082015181840152602081019050610069565b5050505090500191505060405180910390f35b61009f61023e565b005b6100cd600480360360208110156100b757600080fd5b8101908080359060200190929190505050610347565b604051808260ff1660ff16815260200191505060405180910390f35b6100f161036e565b6040518082600a60200280838360005b8381101561011c578082015181840152602081019050610101565b5050505090500191505060405180910390f35b610137610441565b60008090505b600a8160ff16101561015657808060010191505061013d565b507f281af5129a9b34d6bab3ede59a3e274e5c5e2aa56d24ca7077dd2071d6ddfff060006040518082600a80156101c8576020028201916000905b82829054906101000a900460ff1660ff16815260200190600101906020826000010492830192600103820291508084116101915790505b505091505060405180910390a16000600a806020026040519081016040528092919082600a8015610234576020028201916000905b82829054906101000a900460ff1660ff16815260200190600101906020826000010492830192600103820291508084116101fd5790505b5050505050905090565b610246610441565b60008090505b600a8160ff1610156102865780828260ff16600a811061026857fe5b602002019060ff16908160ff1681525050808060010191505061024c565b50600080600090505b600a8160ff161015610339578060ff16600a036102aa610439565b816102b157fe5b0691508282600a81106102c057fe5b602002015160008260ff16600a81106102d557fe5b602091828204019190066101000a81548160ff021916908360ff1602179055508260018260ff16600a0303600a811061030a57fe5b60200201518383600a811061031b57fe5b602002019060ff16908160ff1681525050808060010191505061028f565b5061034261012f565b505050565b600081600a811061035457fe5b60209182820401919006915054906101000a900460ff1681565b610376610441565b60008090505b600a8160ff1610156103c6578060008260ff16600a811061039957fe5b602091828204019190066101000a81548160ff021916908360ff160217905550808060010191505061037c565b506103cf61012f565b506000600a806020026040519081016040528092919082600a801561042f576020028201916000905b82829054906101000a900460ff1660ff16815260200190600101906020826000010492830192600103820291508084116103f85790505b5050505050905090565b600042905090565b604051806101400160405280600a9060208202803883398082019150509050509056fea265627a7a723158201c21d0fff070125c782ab5e707d8e3c82800b14c33470d89908e01a5f50d827a64736f6c63430005100032",
  "source": "// SPDX-License-Identifier: MIT\npragma solidity >=0.4.22 <0.9.0;\n\ncontract Deck {\n  uint constant LENGTH = 10;\n  uint8[LENGTH] public deck;\n  \n      // address public owner = msg.sender;\n\n  \n  event printDeck(uint8[LENGTH] deck);\n  \n  \n  constructor() public {\n    reset();\n  }\n  \n  function reset() public returns (uint8[LENGTH] memory ){\n    for(uint8 i = 0; i < LENGTH; i++) {\n      deck[i] = i;\n    }\n    print();\n    return deck;\n  }\n  function getRandomNumber() private returns (uint) {\n       return block.timestamp;\n   }\n\n   function shuffle() public {\n      uint8[LENGTH] memory unshuffled;\n\n      for (uint8 i=0; i < LENGTH; i++) {\n          unshuffled[i] = i;\n      }\n\n      uint cardIndex;\n\n      for (uint8 i=0; i < LENGTH; i++) {\n          cardIndex = getRandomNumber() % (LENGTH - i);\n          deck[i] = unshuffled[cardIndex];\n          unshuffled[cardIndex] = unshuffled[LENGTH - i - 1];\n      }\n      print();\n   }\n   function print() public returns (uint8[LENGTH] memory){\n   \n   for(uint8 i=0; i < LENGTH; i++){\n   }\n    emit printDeck(deck);\n    return deck;\n   }\n}",
  "sourcePath": "C:\\Users\\hanke\\eth\\consensys_bootcamp\\blockchain-developer-bootcamp-final-project\\contracts\\Deck.sol",
  "compiler": {
    "name": "solc",
    "version": "0.5.16+commit.9c3226ce.Emscripten.clang"
  },
  "schemaVersion": "3.4.3",
  "updatedAt": "2021-09-23T23:48:39.083Z",
  "networkType": "ethereum",
  "devdoc": {
    "methods": {}
  },
  "userdoc": {
    "methods": {}
  }
}